:400000000080002011000000A91F0000A91F000008B5044B1A6803F53F5302331A6001F0E3FF00BFFA46004010B5054C237833B9044B13B10448AFF300800123237010BD04
:400040002889FF1F0000000040410000084B10B51BB108490848AFF300800848036803B910BD074B002BFBD0BDE81040184700BF000000002C89FF1F40410000C880FF1F30
:400080000000000000B583B00246009103460021084600F0BDF903B05DF804FB08B501F059FD034803F064F8002001F003FA08BD4441000008B5064B064ADA62064A9A633D
:4000C000064ADA6302F018F802F08EF808BD00BF0080FF1F0119000061190000A519000000B583B0FFF7E6FF4FF4807000F00AF900F0CAF9002401940123009323464FF4CD
:400100007A720F490F4800F0B3FF00F039F801940225009523464FF47A720B490B4800F0A7FF00F069F90194009523464FF47A720749084800F09CFF00F0CCFFFEE700BF9D
:40014000604100009D00000068410000A501000074410000F90400004FF0A00383F31188BFF36F8FBFF34F8FFEE700BF4FF0A00383F31188BFF36F8FBFF34F8FFEE700BF96
:4001800010B500220C21202000F0AEFB044C606000220421202000F0A7FB206010BD00BF4489FF1F10B584B000240FE01F4800F1080104EB840213010B4404A941F8103DBA
:4001C00000231A46006800F0A9FB01341F2CEDDD4FF0FF3201A9154B586800F073FC18B94FF47A7001F0E2F8114C23689B6805220121104802F010FB23689968019802F034
:400200004DF923689968202002F00CF923689968029802F043F9236899680A2002F002F9039B002BD4D002989847D1E74489FF1F1085FF1F8041000000B583B00023019322
:400240008DF803308DF8023001F06AFF8DF803009DF8033013F0200F0BD001F05BFF8DF80200002301AA0DF102010848006800F0F1FB019B3BB14FF08052054B1A60BFF30E
:400280004F8FBFF36F8F03B05DF804FB4C93FF1F04ED00E000B583B0002301938DF803308DF8023001F04AFF8DF803009DF8033013F0020F15D001AA0DF102010F4B586884
:4002C00000F010FD012809D19DF8020001F03CFF01F034FF10F0040FEDD002E0002001F027FF019B3BB14FF08052054B1A60BFF34F8FBFF36F8F03B05DF804FB4C93FF1F87
:4003000004ED00E038B5054601E001F003FF01F007FF10F0200FF8D100220121284600F0E3FA0B4C206002F03BF80A4802F02AF800220121284600F0D7FA606002F002F8F1
:40034000054801F0F1FF002001F0F2FE38BD00BF4C93FF1F390200009502000008B50A460146054B186800F0ADFB012801D0002008BD012008BD00BF4C93FF1F10B582B097
:4003800002AC04F8010D00230A4621460948406800F0C4FA012801D1012400E0002401F0C1FA032001F0C4FE01F0CCFA204602B010BD00BF4C93FF1FF8B505460C464FF07D
:4003C000FF310C4B186800F0F9FB38B9F8BD6F1C00212878FFF7D2FF34463D46661E002CF5DC00231A4619460248006800F096FAF8BD00BF5493FF1F08B500220821032023
:4004000000F072FA014B586008BD00BF5493FF1F10B582B0049C8DF800008DF801108DF802208DF8033001940B4B9B6813B90B4802F09EFE012C01D80223019300234FF006
:40044000FF3269460448406800F068FA204600F0ADFF02B010BD00BF5493FF1F984100000122014B9A6070475493FF1F08B50022034B9A6005210348FFF79EFF08BD00BF64
:400480005493FF1F8841000008B5012000F0D6FA014B186008BD00BF5493FF1FF8B50C4617464FF0FF31124B186800F087FBE0B100250FE023780A2B04D14FF0FF310D2083
:4004C000FFF75CFF661C4FF0FF312078FFF756FF01353446BD42EDDB00231A4619460448006800F01BFA3846F8BD0020F8BD00BF5493FF1F0020704770B588B00023069309
:400500000793594B53F8080F04901B798DF81430BDF81A3023B1554B9B681BB9192202E0192200E0052206A9504B586800F0CAFA012801D1079D00E005254C4B9B68CBB104
:400540009DF81830003318BF01239DF819200AB1022200E0002213438DF81030DB438DF811309DF81A308DF812309DF81B308DF8133004E000238DF812308DF8133000F0EE
:40058000E9FD01906CE03C2D01D9322600E02E46AD1B8DF81460052104A8FFF70DFF002404E09DF808301F2B00D80134072C06DC642102AB1819FFF7D1FE0028F1D1082C6D
:4005C0004AD19DF8082002F00101284B9A6A0A449A62DB692BB19DF8093003F07F03234A1362224BDB68002B36D09DF80A3003EB830303EB83039A0093B21C4A13829DF822
:400600000B3003EB830303EB8303990089B251829DF80C3003EB830303EB8303990089B291829DF80D3003EB830303EB8303990089B2D1829DF80E3003EB830303EB8303B4
:40064000990089B211839DF80F3003EB830303EB8303990089B25183314601A800F070FE002D90D154E700BF884100005493FF1F00F1080343604FF0FF328260C360036162
:4006800000230360704700BF00230361704700BF43684B609A688A609A68516099600861036801330360704730B40D68B5F1FF3F01D1026907E000F1080200E01A465368DA
:4006C0001C68A542FAD253684B6099608A605160086103680133036030BC704703694268816891608268416851605A68904201D182685A60002202611A68013A1A60186841
:40070000704700BF436A23B1036B1868C0F1050070470020704700BF10B5044601F002F9A26BE36B9A4201D1012400E0002401F009F9204610BD00BF10B5044601F0F2F8D5
:40074000A36B0BB9012400E0002401F0FBF8204610BD00BF70B504461646856B026C3AB9036843BB406800F0F5FF0023636029E06EB9806802F07AFBA268236C1344A3603F
:400780006268934219D32368A36000201AE0C06802F06CFB236C5B42E2681A44E26021688A4202D262681344E360022E07D145B1013D002006E0002004E0002002E000207A
:4007C00000E000200135A56370BD00BF026C72B110B5C3681344C3604468A34201D30368C3600C46C168204602F040FB10BD704738B5054601F096F895F8454064B20AE086
:400800006B6A53B105F1240000F0C4FE08B100F031FF013C64B2002CF2DCFF2385F8453001F090F801F07EF895F8444064B20AE02B6953B105F1100000F0ACFE08B100F007
:4008400019FF013C64B2002CF2DCFF2385F8443001F078F838BD00BF38B504460D4601F061F82168E26B236C03FB021060600020A063A160013A02FB0313E360FF2384F88F
:40088000443084F845307DB92369ABB104F1100000F080FE80B14FF08052094B1A60BFF34F8FBFF36F8F07E004F11000FFF7E0FE04F12400FFF7DCFE01F044F8012038BD06
:4008C00004ED00E038B51D46049C0B4609B9246000E02260E063236401212046FFF7BCFF84F84C5038BD00BFF0B583B0054617460E4611B100FB01F000E00020503001F07C
:40090000ADF8044638B100903B4600F1500231462846FFF7D7FF204603B0F0BDF0B585B004460F4601921E46002500F0FBFFA26BE36B9A4201D3022E21D13246394620460B
:40094000FFF708FF636A6BB104F1240000F022FE88B14FF08052324B1A60BFF34F8FBFF36F8F08E038B14FF080522D4B1A60BFF34F8FBFF36F8F00F0E5FF01204EE0019B14
:400980001BB900F0DFFF002048E01DB902A800F03BFE012500F0D6FF00F0D2FB00F0C2FF94F844305BB2B3F1FF3F02D1002384F8443094F845305BB2B3F1FF3F02D1002390
:4009C00084F8453000F0BEFF01A902A800F026FEF0B92046FFF7A0FEA0B1019904F1100000F0C8FD2046FFF703FF00F03DFC00289BD14FF080520A4B1A60BFF34F8FBFF36C
:400A00006F8F92E72046FFF7F3FE00F02DFC8CE72046FFF7EDFE00F027FC002005B0F0BD04ED00E048B108B5002141600160C1600B460A46FFF772FF08BD704710B502462E
:400A400000210120FFF750FF0446FFF7EBFF204610BD00BFF8B5EFF311864FF0A00484F31188BFF36F8FBFF34F8F856BC46BA54201D3022B1BD11746054690F8454064B2BC
:400A80001A46FFF767FEB4F1FF3F0AD16B6A83B105F1240000F07EFD68B177B1012038600CE0013464B285F84540012006E0002004E0012002E0012000E0012086F31188BA
:400AC000F8BD00BFF0B585B004460F460192002600F028FFA56BC5B139462046FFF776FE013DA563236963B104F1100000F052FD38B14FF08052304B1A60BFF34F8FBFF309
:400B00006F8F00F01FFF012053E0019B1BB900F019FF00204DE01EB902A800F075FD012600F010FF00F00CFB00F0FCFE94F844305BB2B3F1FF3F02D1002384F8443094F845
:400B400045305BB2B3F1FF3F02D1002384F8453000F0F8FE01A902A800F060FDF0B92046FFF7EAFDA0B1019904F1240000F002FD2046FFF73DFE00F077FB0028A8D14FF0EB
:400B800080520D4B1A60BFF34F8FBFF36F8F9FE72046FFF72DFE00F067FB99E72046FFF727FE00F061FB2046FFF7C6FD00288FD0002005B0F0BD00BF04ED00E070B584B094
:400BC000044601910026354600F0ACFEA36BCBB1013BA363236813B900F050FE6060236963B104F1100000F0D5FC38B14FF080523B4B1A60BFF34F8FBFF36F8F00F0A2FE8D
:400C000001206BE0019B1BB900F09CFE002065E01DB902A800F0F8FC012500F093FE00F08FFA00F07FFE94F844305BB2B3F1FF3F02D1002384F8443094F845305BB2B3F171
:400C4000FF3F02D1002384F8453000F07BFE01A902A800F0E3FC40BB2046FFF76DFDF0B123683BB900F05EFE606800F00BFD064600F068FE019904F1240000F07BFC2046B4
:400C8000FFF7B6FD00F0F0FA00289DD14FF08052134B1A60BFF34F8FBFF36F8F94E72046FFF7A6FD00F0E0FA8EE72046FFF7A0FD00F0DAFA2046FFF73FFD002884D066B151
:400CC00000F030FE2046FFF71DFD0146606800F085FD00F037FE002000E0002004B070BD04ED00E02DE9F041EFF311864FF0A00383F31188BFF36F8FBFF34F8F846BFCB15B
:400D00009046074690F844506DB2FFF75FFD013CBC63B5F1FF3F0DD13B699BB107F1100000F038FC80B1B8F1000F0FD00120C8F800000CE001356DB287F84450012006E0C5
:400D4000002004E0012002E0012000E0012086F31188BDE8F08100BF094B9B6A1B680BB9012300E0002323B14FF0FF32044BDA627047034B9A6AD268D2685268DA627047A3
:400D80008093FF1F2DE9F04781460D4617469A46089EDDF824800A9C9200A521206B02F03FF9236B07F18042013A03EB820727F00707002306E0E95CE21882F83410EA5C21
:400DC00012B101330B2BF6D9002384F83F30042E00D90426E662A6640025E564201DFFF753FC04F11800FFF74FFC2461C6F10506A66164622565C4F8805484F884544FF45F
:400E00008562294604F1580002F00AF904F55173E36504F56B73236604F214436366184BC4F88C3004F5807301200021C3E9000143F20E33A4F808314AF6CD33A4F80A3187
:400E400041F23423A4F80C314EF26D63A4F80E314DF6EC63A4F810310523A4F812310B23A4F8143152464946384600F037FD2060B8F1000F01D0C8F80040BDE8F08700BFF2
:400E80002442000070B5002407E004EB8402930010481844FFF7ECFB0134042CF5D90E4C04F194063046FFF7E3FB04F1A8052846FFF7DEFB04F11400FFF7DAFB04F1BC0039
:400EC000FFF7D6FB2046FFF7D3FBA662C4F8D05070BD00BFB093FF1F8093FF1F38B5054600F020FD264BD3F8D4200132C3F8D420D3F8D8304BB9224BC3F8D850D3F8D43052
:400F0000012B10D1FFF7BEFF0DE01D4BD3F8DC304BB91B4BD3F8D830DA6AEB6A9A4202D8174BC3F8D850164CD4F8E0300133C4F8E0302B64EB6A012202FA03F1D4F8E420EF
:400F40000A43C4F8E42004F1300003EB83039A00291D1044FFF79CFB00F0F4FCD4F8DC306BB1D4F8D830DA6AEB6A9A4207D24FF08052044B1A60BFF34F8FBFF36F8F38BD05
:400F80008093FF1F04ED00E010B50446583002F0EFFA206B00F0BCFD204600F0B9FD10BD38B517E000F0BEFC0D4CD4F8C830DD68281DFFF793FBD4F8D430013BC4F8D4302B
:400FC000D4F8E830013BC4F8E83000F0BBFC2846FFF7DAFF024BD3F8E830002BE2D138BD8093FF1F08B5FFF7DBFFFCE770B504460E461E4BD3F8EC50D3F8D8000430FFF775
:401000006DFB60B9194BD3F8D820D16A012202FA01F1D3F8E42022EA0102C3F8E420B4F1FF3F07D136B11148D0F8D8100431FFF72FFB70BD2C440D4BD3F8D8305C60A542B4
:4010400008D90A4BD3F8D000D3F8D8100431FFF72BFB70BD054DA86AD5F8D8100431FFF723FBEB6A9C4200D2EC6270BD8093FF1F2DE9F04385B006460F4615469846900073
:4010800000F0ECFC68B181464FF4916000F0E6FC044610B1C0F8309004E0484600F038FD00E000248CB10023039302940D9B01930C9B009343462A4639463046FFF762FE0E
:4010C0002046FFF70BFF012001E04FF0FF3005B0BDE8F08300B583B0144B019300230093642213491348FFF7C3FF01281AD14FF0A00383F31188BFF36F8FBFF34F8F0E4B29
:40110000D3F8D82058320D490A604FF0FF32DA620122C3F8DC200022C3F8EC2001F0DCF800F068FC03B05DF804FB00BF7494FF1F28420000E50F00008093FF1F1085FF1FEC
:40114000034AD2F8F0300133C2F8F030704700BF8093FF1F014BD3F8EC0070478093FF1F2DE9F0413F4BD3F8F030002B66D13D4BD3F8EC700137C3F8EC7067B99A6AD3F88D
:40118000D0109962C3F8D020D3F8F8200132C3F8F820FFF7E1FD334BDB6A9F4205D24FF000083FE04FF0010801E04FF000082D4B9B6A1B680BB9012300E0002323B14FF09D
:4011C000FF32284BDA622DE0264B9B6ADB68DC6863689F4202D2234AD36223E0261D3046FFF77CFAA36A1BB104F11800FFF776FAE36A012202FA03F11A4DD5F8E4200A438A
:40120000C5F8E42005F1300003EB83039A0031461044FFF73DFAE26AD5F8D830DB6A9A42C0D2C4E70F49D1F8D830DB6A03EB83039A000A44136B012B09D80AE0094AD2F8E6
:40124000FC300133C2F8FC304FF0000801E04FF00108044BD3F800310BB14FF001084046BDE8F0818093FF1F70B500F05BFB324BD3F8F020013AC3F8F020D3F8F030002BBD
:4012800053D12D4BD3F8D43043BB002450E02A4C236ADD6805F11800FFF720FA2E1D3046FFF71CFAEB6A012202FA03F1D4F8E4200A43C4F8E42004F1300003EB83039A00C6
:4012C00031461044FFF7E4F9EA6AD4F8D830DB6A9A4204D30122C4F8002100E00025164B5B69002BD3D10DB1FFF736FD124BD3F8FC4064B1FFF734FF18B101220E4BC3F8AE
:401300000021013CF6D100220B4BC3F8FC200A4BD3F800315BB14FF08052084B1A60BFF34F8FBFF36F8F012402E0002400E0002400F008FB204670BD8093FF1F04ED00E007
:4013400038B505460C46FFF7FBFE164BD3F8EC002A681319904205D29A4209D9984209D300220CE09A4207D8984207D3002206E0002204E0012202E0012200E001222B60C0
:401380001AB10021181AFFF731FEFFF76DFF38B94FF08052044B1A60BFF34F8FBFF36F8F38BD00BF8093FF1F04ED00E010B548B10446FFF7C5FE00212046FFF717FEFFF77E
:4013C00053FF00E0002038B94FF08052034B1A60BFF34F8FBFF36F8F10BD00BF04ED00E0324BD3F8F03023B10122304BC3F80021704710B52D4C0023C4F8003100F01CFF6E
:40140000D4F80431984205D9D4F8D820C31A116D0B441365254BC3F80401D3F8D8301B6B1A68B2F1A53F0BD15A68B2F1A53F07D19A68B2F1A53F03D1DB68B3F1A53F07D07F
:401440001A4BD3F8D800D3F8D8103431FEF784FE164AD2F8E430B3FA83F3DBB2C3F11F039800C418A10011444C6B64684C6302F130011844820008320A44944206D1606876
:4014800003EB83018A0009490A445063074903EB83039A000A44536BDB68C1F8D830D1F8D8305833024A136010BD00BF8093FF1F1085FF1F38B5044600F034FA14B92B4B4C
:4014C000D3F8D840251D2846FFF708F980B9E26A02EB82018B0025490B441B6B43B9012303FA02F2D1F8E43023EA0202C1F8E420A36A1BB104F11800FFF7F0F829461B484D
:40150000FFF7C6F894F88434DBB2012B02D1002384F8843400F016FA144BD3F8DC302BB100F000FAFFF718FC00F00CFA0F4BD3F8D8309C4219D10D4BD3F8DC3043B14FF07D
:4015400080520B4B1A60BFF34F8FBFF36F8F38BD064B1A68D3F8D4309A4204D10022034BC3F8D82038BDFFF73BFF38BD8093FF1F04ED00E010B50C46054BD3F8D81018319F
:40158000FFF792F801212046FFF730FD10BD00BF8093FF1F38B5C368DC6804F118052846FFF79CF8164BD3F8F030B3B9251D2846FFF794F8E36A012202FA03F11048D0F873
:4015C000E4200A43C0F8E420303003EB83039A0029461044FFF75CF803E029460948FFF757F8E26A064BD3F8D830DB6A9A4204D90120034BC3F8000138BD002038BD00BF19
:401600008093FF1F9493FF1F034BD3F8F8200260D3F8EC30436070478093FF1FF8B504460D4600F07FF9124BD3F8EC106268881A2B68B3F1FF3F14D027680D4ED6F8F86084
:40164000B74201D091420ED2984206D21B1A2B602046FFF7D9FF002406E000232B60012402E0002400E0012400F06CF92046F8BD8093FF1F0122024BC3F80021704700BFFC
:401680008093FF1F00285CD038B50346C26A2F49D1F8D810C96A8A424AD28169002906DB2A49D1F8D810C96AC1F105018161586902EB82029100264A1144884201D10122D3
:4016C00000E000226AB31C461D1D2846FFF706F880B9E26A02EB82018B001C490B441B6B43B9012303FA02F2D1F8E43023EA0202C1F8E4201548D0F8D830DB6AE36201247B
:4017000004FA03F1D0F8E4200A43C0F8E420303003EB83039A0029461044FEF7B9FF204638BD0A4AD2F8D820D26ADA62012038BD826C064BD3F8D830DB6A9A4203D30020DC
:4017400038BD00207047012038BD00BF8093FF1FB093FF1F002838D038B50346C26C013AC264C06A996C884231D092BB1C461D1D2846FEF7B3FF80B9E26A02EB82018B00C9
:4017800015490B441B6B43B9012303FA02F2D1F8E43023EA0202C1F8E420A36CE362C3F10502A261012404FA03F10B48D0F8E4200A43C0F8E420303003EB83039A0029460C
:4017C0001044FEF765FF204638BD00207047002038BD002038BD00BF8093FF1F002848D038B50346826C8A4200D20A46D96A8A423ED0D86C01283BD1DA629869002802DBC6
:40180000C2F105029A61586901EB81018A0019490A44904201D1012200E0002242B31C461D1D2846FEF75AFF80B9E26A02EB82018B0011490B441B6B43B9012303FA02F2B4
:40184000D1F8E43023EA0202C1F8E420E36A012202FA03F10848D0F8E4200A43C0F8E420303003EB83039A0029461044FEF710FF38BD7047B093FF1F8093FF1F064BD3F8A9
:40188000D8302BB1044BD3F8D820D36C0133D364014BD3F8D80070478093FF1F82B0002301934FF0A00383F31188BFF36F8FBFF34F8F019B002BFCD002B0704706480068E5
:4018C000006880F3088862B661B6BFF34F8FBFF36F8F00DF00BF000008ED00E04FF0807340F8043C21F0010140F8081C034B40F80C3C40F8202C4038704700BF9D1800008D
:40190000074B19680868B0E8F00F80F30988BFF36F8F4FF0000080F311884EF00D0E70475894FF1F4FF0A00383F31188BFF36F8FBFF34F8F024A136801331360704700BF9F
:40194000CC80FF1F034A1368013B13600BB983F311887047CC80FF1F0000000000000000EFF30980BFF36F8F0D4B1A6820E9F00F10602DE908404FF0A00080F31188FFF7E6
:401980002FFD4FF0000080F31188BDE8084019680868B0E8F00F80F30988BFF36F8F70475894FF1F08B54FF0A00383F31188BFF36F8FBFF34F8FFFF7D3FB18B14FF080523A
:4019C000024B1A60002383F3118808BD04ED00E0054B00221A6005490A6045F6BF51044A116007221A60704710E000E018E000E014E000E010B50B4B1A6842F460021A6025
:401A00001A6842F060421A60FFF7E2FF0024064B1C60FFF753FFFFF7E3FCFFF73FFF204610BD00BF20ED00E0CC80FF1F094A22F00702094BC3F840280020C3F8440848F62A
:401A4000F871C3F84C18C3F84808516003F64803136070479094FF1F481C002070B50446FFF76EFB264BD3F850382BB9FFF7DEFF0122234BC3F8502834B1083414F0070FA6
:401A800002D024F007040834621E48F6F6739A422BD81B49D1F8403801F5046101E0194613465A68944202D91A68002AF7D1154A93421CD00D6808351A680A605A68121BC6
:401AC000102A0CD91E1972605C6074680E4900E011460A6850688442FAD832600E6059680A4A13685B1A136002E0002500E00025FFF7BAFB0DB9FEF739FB284670BD00BF5E
:401B0000481C00209024002088240020D080FF1FD0B170B50546A0F10806FFF711FB55F8044C0A4A00E01A46136859688C42FAD845F8083C166055F8043C054A11680B44D9
:401B40001360FFF791FB70BD704700BF88240020D080FF1F08B5FEF783FC00210846FEF791FA00F009FB0028FBD1012000F0F8FA4FF4FA70FFF71AFC002000F0F1FA40F69E
:401B8000BE217D20FEF77EFA00210846FEF77AFA6721FF2000F030F840F62E117D20FEF771FA6721FF2000F027F840F6F6117D20FEF768FA6721FF2000F01EF840F2F46217
:401BC0008721A42000F024F840F23A217D20FEF759FAFEF74BFC642000F002F808BD00BF38B50546002484F00104204600F0B8FA2846FFF7DBFBF6E700B583B00246009118
:401C0000034601210020FEF703FC03B05DF804FB00B583B000920B46024600210846FEF7F7FB03B05DF804FBFEE700BFF0B40022174611E050F82760F3B226F0FF0608E07F
:401C400001EB420511F812406D78A5550132013BDBB2002BF4D10137282FEBD9F0BC704708B50A46002101F0DBF908BDF8B5174B1B78DBB2164E3478E4B2164F3D78EDB20F
:401C800003F00701144A11701B090132137044F00303337045F003033B7020220F4B1A7040230F490B7002310B70022301F21D210B7003310A700B4A13700A2000F092FBA5
:401CC0003D7034704422084B1A70F8BDCF010049F8460040F94600406E5800402D51004009590040585B00407658004008B501F0BDF808BD38B5484C2578EDB21722474B6E
:401D00001A80182346490B7002310A80454A1370192204310A8002310B7002310A80424A137077210232118002321370EF21023211800232137004223C493D48FFF7D6FFE6
:401D400002223C4B1A7008224FF040231A70F32203F20A331A70032323708422364B1A700522013B1A70354C04E04FF4F07000F043FB013C24B1324B1B7813F0200FF4D062
:401D8000254B1D700322A3F593631A702D4B1B78DBB22D4A137008222C4B1A8041F25122023B1A80002419250CE0294B1B7803F0010343EA440404F003044FF4F07000F050
:401DC0001BFB013D0DB1032CEFD115B90320FFF72BFF204B4FF480721A8007221A7000221D490A704820023108701A700222033B1A7004220A331A70184A137843F03F030A
:401E00001370013A137843F001031370013A137843F08003137038BD984600408040004082400040864000408E4000401C120048004100400043004009430040A08601004A
:401E40000843004008010049A146004022420040254200400440004006400040A243004038B572B63B4A137843F00403137000240CE0394D630019194A0011462A4408467A
:401E800091882858FFF7ECFE0134E4B2082CF0D900240CE03048A20011194B000344B3F84020D96B986BFFF721FF0134E4B2032CF0D92A494FF09040FFF7B8FE284A1378A5
:401EC00043F0020313701032137843F002031370244C237843F040032370A2F58632513A137843F01003137008221F491F48FFF7FDFE0A221E491F48FFF7F8FE08221E49FC
:401F00001E48FFF7F3FE0A221D491E48FFF7EEFE0A221D491D48FFF7E9FE08221C491D48FFF7E4FE1C4A137843F0080313701B4D61232B70FFF7DEFE81232B700122184B0A
:401F40001A70FFF793FE0E2221461648FFF7CEFE38BD00BFE846004058420000A400004803500140A0430040E011004802510040E8110048C0510040F4110048F25100400C
:401F8000FC1100481051004008120048205100401412004832510040224300400048004004000840B043004008B500F035FA03680C2B00D1FEE7FEE708B5094B1A6810443B
:401FC000084BC31AB3F5005F02DC054B186005E000F022FA0C2303604FF0FF32104608BDD480FF1FE024002008B5104E104D16E029686B68AC68002204E051F8040B43F8E1
:40200000040B0432A242F8D1E868002203E0002143F8041B04328242F9D11035013E002EE6D100F009FCFEF75BF8FEE701000000E842000008B5104A104B1A60104A1368A3
:4020400043F40073136000230AE0032B03D80D4A52F8231000E00C490C4A42F8231001332F2BF2D90A4B1A780A4B1A70074A0A4B1A60FFF7F5FE08BD0004FA050CED00E098
:4020800014ED00E000000000A91F00000080FF1FBC760040C080FF1F08ED00E07222074B1A70202203331A700622623B1A70472210331A700022AC3B1A70704784650040CA
:4020C00010B500F0A1F904460A4A137843F0200313700332137843F010031370FE3A137843F01003137000F061F9204600F090F910BD00BF9465004008B5054B1B7823B910
:40210000FFF7CCFF0122024B1A70FFF7D9FF08BD9C240020014B1878704700BF44650040024B187800F07F00704700BF67650040014B1870704700BF89640040014B187815
:40214000704700BF69640040034B1B7813F0040FFAD1024B187070476964004047650040044A137803F0FD03400000F0020018431070704720510040024B1878C0F3800044
:40218000704700BF215100407222084B1A702022013B1A700622A3F5B4731A70472210331A70002252331A70704700BF8A65004010B500F029F904460A4A137843F02003AB
:4021C0001370013A137843F010031370A2F58372137843F01003137000F0F6F8204600F017F910BD9A65004008B5054B1B7823B9FFF7CAFF0122024B1A70FFF7D9FF08BDD5
:402200009E240020024A137843F080031370704770640040014B1870704700BF85640040014B1878704700BF65640040014B1860704700BF02640040024B1B78024B186886
:40224000704700BF0264004042640040014B1868704700BF42640040014B1860704700BF22640040014B1860704700BF3264004008B501E0FFF7EAFFFFF7D2FF10F0400F91
:40228000F8D108BD08B5124B1A7802F0F8021A701A7802F0FC021A70FFF7EAFF6FF00100FFF7DAFF0020FFF7C1FF0020FFF7B2FFFFF7B6FF0020FFF7D5FF00F0A5F8054A46
:4022C000137843F01003137000F0A2F808BD00BF706400409564004008B5054B1B7823B9FFF7D0FF0122024B1A70FFF78BFF08BDA0240020014B1B681865704708ED00E0F3
:402300004001C0B2014B1870704700BF04E400E01022014B1A60704700E100E01022014B1A60704780E100E010B50446FFF7F6FF2046FFF7DFFF0720FFF7E2FFFFF7E8FF69
:4023400010BD00BF1022014B1A60704780E200E0014B1B68D864704708ED00E04001C0B2014B1870704700BF03E400E00822014B1A60704700E100E00822014B1A60704776
:4023800080E100E010B50446FFF7F6FF2046FFF7DFFF0720FFF7E2FFFFF7E8FF10BD00BF0822014B1A60704780E200E0054A137843F0040313701032137843F00403137037
:4023C000704700BFA2430040054A137843F0080313701032137843F008031370704700BFA243004008B5034B1B7A00FB03F000F003F808BDD880FF1F0230800803D000BF7E
:4024000001380046FCD17047EFF3108072B6704780F31088704700BF014B1868704700BF1085FF1F084B70B51C6805460E4624B1A36B13B9204601F021FB324629462046C8
:40244000BDE8704000F03EBE1085FF1F30B5054687B008461446019101F0E0F801AA012305900290039204930DB1AB6B8BB1B4F90C309A0406D4626E43F4005322F40052A9
:40248000A38162662146284603AA00F00FF807B030BD284601F0F2FAE9E700BF024B0A4601461868FFF7D2BF1085FF1F9368002B00F0AB802DE9F04F8B8985B00C4619074A
:4024C0000290164628D5226932B303F002081FFA88F0356878B34FF00009C846DFF8D0A2B8F1000F00F08B80D04543464A4628BF5346E1690298676AB847002840F3A580F7
:40250000B36881441B1AC0EB0808B360002BE7D1002005B0BDE8F08F2146029801F002F9002840F03C81A389356803F002081FFA88F00028CFD113F0010940F090804F46D9
:402540000196002F56D09A05D4F808805FD54745C246C0F0BF8013F4906F00F0BD8062692068216902EB4208C1EB000A08EBD8780AF101004FEA680838444045424684BF14
:40258000804642465B0540F1F2801146029800F07BF98346002800F005815246216900F065FCA38923F4906343F08003A381CAEB08030BEB0A00C4F81480BA46B846C4F8C1
:4025C00010B02060A3605246494600F0C5FCA0682368C8EB0000A060384653442360019A814493683F1A1B1A9360002B90D0A389002FA8D1D5F800906F680835A1E7D5F8E1
:402600000090D5F8048008356AE70020704720682369984203D86269974280F08380B84528BFB8464946424600F096FCA3682268C8EB03034244A3602260002B48D12146F5
:40264000029801F087F9002842D0B4F90C3043F040034FF0FF30A38105B0BDE8F08F8046824681460190B9F1000F29D0019B002B4BD0C845C34628BFCB46206823695F460A
:402680009842626903D9A36813449B455CDC934524DB1346676A5246E1690298B847071ED3DDB8EB070827D0B368BA44DB1BC7EB0909B360002B3FF42BAFB9F1000FD5D1A8
:4026C0000023D5F800A0D5F8049001930835CAE7404684E7B846BA46206874E75A46514600F03AFCA2682368CBEB02025B44B8EB0708A2602360D7D12146029801F02AF956
:402700000028A2D1CDF80480CEE74A460A21504600F066FB00283DD001300123CAEB00080193A6E76FF00043BB4228BF3B4693FBF2F3E16902FB03F302984A46666AB0474E
:4027400000283FF74CAF80E71A465146039300F003FC2268039B21461A442260029801F0F9F8039B00287FF470AF1F4699E7029800F006FD834600287FF419AF029D216913
:40278000284601F0E7F9B4F90C300C2223F080032A605CE7012309F10108019369E74FF0FF30B6E6029A0C231360B4F90C304EE700FCFF7F2DE9F04102FB03F486B090462E
:4027C0001E4601AA0123019102940594039204930C9D074608B1836BDBB1B5F90C309A0406D46A6E43F4005322F40052AB816A662946384603AAFFF759FE30B10598241AC5
:40280000B4FBF8F006B0BDE8F081304606B0BDE8F08101F033F9E0E710B5064C82B00093246813460A4601462046FFF7C3FF02B010BD00BF1085FF1F70B50F4E0F4D761B39
:40284000B61018BF002405D0013455F8043B9847A642F9D10A4E0B4D01F032FD761BB61018BF002406D0013455F8043B9847A642F9D170BD70BD00BFCC420000CC420000F1
:40288000D8420000CC4200002DE9F04F01F10B05162D83B0064640F2A08035F0070500F1C080A94200F2BD8000F008FCB5F5FC7FC0F090826B0A00F0BB80042B00F2778175
:4028C000A80900F1390E4FEA4E013830BE4F07EB81014C680839A14207D1AEE0002A80F2AE80E468A14200F0A880636823F003035A1B0F2AF2DDB4493C6901F1080E74456B
:4029000000F0A881636823F003035A1B0F2A00F38E81002AC1F814E0C1F810E080F29380B3F5007F80F05C81DB084A684FEAA3094FF0010C013351F833800CFA09F901EB87
:40294000C30C49EA0202ACF1080CC4F80CC0C4F808804A6041F83340C8F80C40831001249C4094427CD8144206D120F003006400144200F10400FAD007EBC009CC46804668
:40298000DCF80C108C4507D166E1002A80F27481C9688C4500F060814B6823F003035A1B0F2AF2DD0C46CB6854F808CF45F00108C1F804800D4442F00101CCF80C3030466C
:4029C000C3F808C07D613D61C5F80CE0C5F808E06960AA5000F074FB1FE0102921D800F06DFB102506230220774F07EB83035C68A3F10802944200F038816368E16823F019
:402A0000030323445A68A56842F00102E96030468D605A6000F054FB0834204603B0BDE8F08F002420460C23336003B0BDE8F08F80214FF0400E3F2048E770465BE72344C9
:402A40005A68E168DFE723445A68304642F001025A60083400F034FB204603B0BDE8F08FBC68636823F00308A84504D3C5EB08030F2B00F38C80554BDFF860911A68D9F8DF
:402A800000302A44013304EB080A00F0608102F580520F3222F47F6222F00F0211463046019200F0A9FDB0F1FF3F8346019A00F05881824500F2FC80454BDA451968114492
:402AC000196000F05381D9F80000DFF810E101301BBFCAEB0B0A5144CEF800B019601BF0070100F01781C1F10800C1F58051834408315A44C2F30B02C2EB010949463046AF
:402B0000019300F079FD431C019B00F03F81CBEB00024A4442F001021968BC424944C7F808B01960CBF80420DFF8A49016D0B8F10F0F40F2FD806268A8F10C0323F007039C
:402B400002F00102E0184FF0050E1A430F2B6260C0F804E0C0F808E000F21C811D4BBC681A68914288BF19601B4B1A689142626888BF196022F003029542A2EB050301D8B0
:402B80000F2B04DC304600F09BFA002445E745F0010243F00103254462603046BD6008346B6000F08DFA204603B0BDE8F08F142B71D9542B00F2A480280B00F16F0E4FEAD0
:402BC0004E016E3082E600BF1485FF1FAC240020B0240020A8240020A42400202089FF1F5A0A042A5ED9142A00F2B38002F15C0149005B3207EB810C57F82110ACF1080C89
:402C00008C45DFF8D88100F088804A6822F00302934202D289688C45F7D1D1F80CC07A68C4F80CC0A160CCF80840CC6096E645F0010742F001032544676030464D610D61B6
:402C4000C5F80CE0C5F808E06B60AA50083400F037FAE2E64A6881E608F1010818F0030F0CF1080C7FF48CAE30E0DC68A34208BF02303FF440AEC0E60C460B445A68C9689C
:402C800054F8085F42F001025A603046E9608D6000F016FAC1E603F15C0E03F15B004FEA4E0113E69A0902F1390149003832A1E7BC424A4B3FF400AF9C68626822F003028C
:402CC0005AE759F80839994540F0828010F0030F00F1FF30F5D17B6823EA04037B6064009C423FF6BDAE002C3FF4BAAE1C4240467FF442AE64001C4200F10400FAD03BE695
:402D0000B3F5AA7F18D8E80B00F1780E4FEA4E017730DBE54FF48051EBE60121D8F80430921001FA02F21A43C8F80420614677E70123CBF8043025E740F25452934220D8CB
:402D4000A80C00F17D0E4FEA4E017C30BEE51032A4E6542A26D81A0B02F16F0149006E3248E7BC68626822F0030205E7CAF30B0000287FF4A8AE4244BB6842F001025A6022
:402D8000ECE6FE214FF07F0E7E209FE501224FF00009C1E604F10801304600F0DBFED9F80010DBE6B2F5AA7F05D8DA0B02F17801490077321EE740F254518A4205D89A0C28
:402DC00002F17D0149007C3214E7FE217E2211E77B6884E7E808431C5B0005E61485FF1F830770B4CDB23DD0531E02B30278AA421ED0421C04E0D3B10478013BAC4217D018
:402E000012F0030F104602F10102F4D1032B11D853B30278AA420BD00344421C02E00178A94205D09342104602F10102F7D1002070BC704704460E0206F47F462E4346EAA9
:402E40000646226820467240A2F1013121EA020212F0803F04F10404DBD1043B032B2046EFD8D5E71346D1E71846E1E7844641EA000313F0030349D1403A23D30B68036038
:402E80004B6843608B688360CB68C3600B6903614B6943618B698361CB69C3610B6A03624B6A43628B6A8362CB6AC3620B6B03634B6B43638B6B8363CB6BC3634030403177
:402EC000403ADBD230320BD30B6803604B6843608B688360CB68C36010301031103AF3D20C3205D351F8043B40F8043B043AF9D2043208D0D2071CBF11F8013B00F8013B2A
:402F000001D30B8803806046704700BF082A13D38B07B1D010F00303AED0C3F10403D21ADB071CBF11F8013B00F8013BA4D331F8023B20F8023B9FE7043AD9D3013A11F819
:402F4000013B00F8013BF9D20B7803704B7843708B788370604670478842F0B50DD98B1898420AD28118002A51D09A1A13F8014D934201F8014DF9D1F0BD0F2A48D941EAA0
:402F800000039B0746D1154600F1100401F1100353F8106C103D44F8106C53F80C6C0F2D44F80C6C53F8086C04F1100444F8186C53F8046C03F1100344F8146CE8D8A2F118
:402FC000100323F00F0302F00F0E1033BEF1030F1944034421D90E4674461D1F56F8047B043C032C45F8047FF8D8AEF1040424F0030404342344214402F0030262B1013BC6
:403000000A4411F8014B8A4203F8014FF9D1F0BD0346F3E70346F2E7F0BD7246EEE700BF70B4840746D0541E002A41D0CDB2034602E0621EE4B3144603F8015B9A07F8D1D3
:40304000032C2ED9CDB245EA05250F2C45EA054519D9264603F11002103E0F2E42F8105C42F80C5C42F8085C42F8045C02F11002F2D8A4F1100222F00F0204F00F0410323D
:40308000032C13440DD91E462246043A032A46F8045BFAD8221F22F003020432134404F003042CB1C9B21C4403F8011BA342FBD170BC704714460346C2E700BF704700BF3A
:4030C000704700BF70B50D461446064618B1836B0BB900F0D3FCA368013B002BA36005DBE8B223685A1C22601D7070BDA269934202DBE8B20A28F4D1224629463046BDE896
:40310000704000F0B9BA00BFF0B5054689B008460C4600F083FA431C144F0393AB6B012604A9022204940590AC680697079601910292B3B1B4F90C309A0406D4626E43F4B4
:40314000005322F40052A38162662146284601AAFFF7ACF9002814BF4FF0FF300A2009B0F0BD284600F08AFCE4E700BFBC420000024B01461868FFF7C7BF00BF1085FF1F26
:403180002DE9F04F174683B0002900F08F800D46814607F10B04FFF791FF55F804EC162C2EF00306A5F108083CD810221446A7423DD8964242DAC64B08EB060099688842A8
:4031C000416800F0D78021F0010303445B68DB074CD51EF0010F00F09D8039464846FFF753FB074600283AD055F8043CA0F1080223F0010343449A4200F03E81321F242AD2
:4032000000F22B81132A00F2FF8003462A46116819605168596092689A602946484600F099FC1CE024F00704002C2246BFDA0C230020C9F8003003B0BDE8F08F2F46331B8D
:403240000F2BD8F804201DD802F00102324308EB0601C8F804204B6843F001034B604846FFF72EFF384603B0BDE8F08F21F003013144914220DBC36882682F46D3600E46DF
:403280009A60DCE702F0010208EB0401144343F00102C8F804400B444A605A68083142F001025A60484600F055FCD8E7114603B0BDE8F04FFFF7E8BA1EF0010F8DD155F813
:4032C000083CC3EB080ADAF8043023F0030C01EB0C0E964526DB5746C3688168321FCB60996057F8081FDAF80C30242ACB60996000F2C980132A40F292802B681B2ACAF84E
:4033000008306B68CAF80C3000F2CD8008350AF1100385E055F8083CC3EB080ADAF8043023F0030C06EB0C039342FFF656AF5746DAF80C1057F8080F321F242AC1608860B4
:4033400000F2AA80132A40F2A58029681B2ACAF808106968CAF80C1000F2BC8008350AF1100229681E4611606968D0465160AB68936064E721F0030B04F11000B344834594
:4033800057DA1EF0010F7FF428AF55F8081CC1EB080ADAF8041021F0030CE3445845C1DC5746DAF80C1057F8080F321F242AC160886000F2B180132A40F2A28029681B2ABB
:4033C000CAF808106968CAF80C1000F2AC8008350AF110022968116069685160A9689160C4EB0B020AEB040142F0010299604A60DAF80430484603F001031C43CAF80440D8
:40340000FFF75EFE38462EE72B681B2A03606B68436026D800F1080305F10802F7E63B462A6876461A606A68D0465A60AA689A6005E7C4EB0B0B08EB04014BF00102996048
:403440004A6055F8043C484603F001031C4345F8044CFFF735FE284605E72946FFF77CFDDBE6AB68242A8360EB68C36027D000F1100305F11002CAE650F8043C2F4623F005
:4034800003031E44DBE6294638467646D046FFF763FDD4E63A4664E7294638461E46D046FFF75AFDCBE6AB68242ACAF81030EB68CAF814301AD010350AF11803B0E72A69B9
:4034C00000F118030261696905F1180241619EE61485FF1FA968242ACAF81010E968CAF814100FD010350AF118023AE72A690AF12003CAF818206A691835CAF81C208FE78D
:403500003A4667E729690AF12002CAF8181069691835CAF81C1024E7294638460193FFF71BFD019B5CE7A968242ACAF81010E968CAF8141003D010350AF118024AE7296936
:403540000AF12002CAF8181069691835CAF81C1040E700BF38B50C460968054609B1FFF7F9FF21462846BDE8384000F0F3BA00BF204B1B6883423CD0C36C70B505468BB1C6
:403580000026995939B10C68284600F0E3FA2146002CF8D1EB6C0436802EF2D11946284600F0D8FA296C11B1284600F0D3FAD5F8481151B105F5A676B14206D00C68284602
:4035C00000F0C8FAA6422146F8D1696D11B1284600F0C0FAAB6B03B970BDEB6B28469847D5F8E0120029F7D02846BDE87040FFF7B1BF70471085FF1F38B5074C00230546BF
:4036000008462360FEF7D8FC431C00D038BD2368002BFBD02B6038BDD824002020F0030110F00300C0F1000051F8043B00F1040C4FEACC0C6FF000021CBF22FA0CF21343A1
:403640004FF0010C4CEA0C2C4CEA0C4CA3EB0C0222EA030212EACC1204BF51F8043B0430F4D0C2F1000102EA0102B2FA82F2C2F11F0200EBD2007047F8B50E461446074685
:4036800010B1836B002B4AD0B4F90C20A36991B20807A36038D52369002B35D08904F5B215D522686169D31A8B421CDA0133A168501C0139A1602060167062699A421AD076
:4036C000A389DB0701D50A2D15D02846F8BD616E42F4005221F40051A281226861666169D31A8B42E2DB2146384600F033F940B922680123DBE72146384600F02BF90028AA
:40370000E3D04FF0FF30F8BD2146384600F00AF80028F6D1B4F90C20236991B2BEE700F0ADF9B1E738B5304B054618680C4610B1836B002B38D0B4F90C2093B218070CD5ED
:403740002069A8B113F001021ED0636900225B42A361A260F0B1002038BDD9063BD5580725D4206942F00803A3819BB20028E9D103F42072B2F5007FE4D02846214600F0A4
:4037800029FBA3892069DDE7990758BF6269A2600028E0D1B4F90C301A06DDD543F04003A3814FF0FF3038BD00F068F9C3E7216B51B104F14003994204D0284600F0CAF9C6
:4037C000B4F90C20002323632069002322F0240284E80900C6E742F0400209232B604FF0FF30A28138BD00BF1085FF1F024B13B1024800F005B8704700000000913A000094
:40380000002301461A46184600F082BBB1F90C302DE9F0419AB20D46110780463CD46A6843F40063002AAB8173DDAC6A002C4BD09BB203F48052002192B2D8F80060C8F89F
:403840000010002A69D02A6D5F0705D569682B6B521A0BB1EB6BD21A0023E9694046A047441C3CD0B5F90C30296923F400630022AB81DB0485E8060049D4296BC8F8006078
:4038800011B305F14003994202D0404600F062F900202863BDE8F0812E69AEB190072C680CBF6B6900232E60A41BAB600AE0234632466F6AE9694046B8470028A4EB00045B
:4038C000064404DD002CF2DC0020BDE8F081AB894FF0FF3043F04003AB81BDE8F081D8F800201D2AF3D81A4BD34003F0010383F00104002BEBD0B5F90C30296923F400634E
:403900002960D9046C60AB81B7D5002AB5D12865B3E7EA6B002A88DCD6E70123E9694046A047431C024602D0AB89AC6A8CE7D8F80030002BF8D01D2B01D0162B02D1C8F82D
:403940000060C1E7AB8943F04003AB81BDE8F0810100402010B5044682B008B1836B53B1B1F90C0008B902B010BD204602B0BDE81040FFF74BBF019100F080F80199EFE799
:40398000014900F0CFB900BFD93F00002DE9F04F074635487D68002407F53B7204230321F863C7F8E412C7F8E822C7F8E04283B02C606C60AC606C66EC812C616C61AC615B
:4039C000AB81214605F15C000822FFF729FBDFF89CB0BE68DFF898A0DFF89890DFF8988001230922C5F820B0C5F824A0C5F82890C5F82C80ED612146F381B28106F15C006E
:403A000034607460B460746634617461B46108220193FFF705FBFD6812200222F661C6F820B0C6F824A0C6F82890C6F82C802146A881EA812C606C60AC606C662C616C6170
:403A4000AC6105F15C000822FFF7EAFA019BED61C5F820B0C5F824A0C5F82890C5F82C80BB6303B0BDE8F08F813900005D3E0000813E0000BD3E0000DD3E0000836B03B14C
:403A80007047FFF783BF00BF704700BF704700BF38B5074D074C2C1BA41005D0013C55F8043D9847002CF9D1BDE8384000F014BCE8420000E4420000F8B50C46224F06467F
:403AC000FFF7FCFABB685D6825F00305291B01F6EF7121F47F6121F00F01A1F58054B4F5805F07DB00213046FFF786FDBB682B44984204D03046FFF7E3FA0020F8BD61423F
:403B00003046FFF779FD01300DD0104BBA6819682D1B45F001053046091B55601960FFF7CFFA0120F8BD00213046FFF765FDBA68831A0F2BDEDD064C0449246843F00103B2
:403B4000001B53600860D5E71485FF1FB02400202089FF1F002945D02DE9F0410D468046FFF7ACFA55F8047C6A49A5F1080427F00103E2188E685068B24220F0030062D089
:403B8000FE0750600BD455F8087C01F1080EE41BA5683B4475456FD0E768EF60BD6015186D68ED0742D543F001026260E350B3F5007F18D2DB0848689D100122013351F830
:403BC000337002FA05F501EBC3022843083AE260A760486041F83340FC604046BDE8F041FFF76EBA70475A0A042A53D89A0902F139077F0002F1380501EB870051F827205F
:403C00000838904243494DD0516821F003018B4202D292689042F7D1D068E060A2608460D4604046BDE8F041FFF74ABA95683A4F0344BD423FD0D06843F00102E860856068
:403C40006260E350B3E7FF07034407D455F8085C641BE268A0682B44C26090602F4A43F001001268606093428C60B6D32C4B40461968FFF721FFB0E711184968C90744D46C
:403C800091680344D26843F00100CA6091606060E350A2E7142A17D802F15C077F0002F15B05A9E7AA104B68012505FA02F213434B600246B1E743F001024C610C61E560DE
:403CC000A5606260E35088E7542A06D81A0B02F16F077F0002F16E058EE7B2F5AA7F06D8DA0B02F178077F0002F1770584E740F25450824206D89A0C02F17D077F0002F1B2
:403D00007C0579E7FE277E2576E743F001026260E35062E71485FF1F1C85FF1F1C89FF1FAC2400202DE9F84310F538761ED0884607464FF000097568B468013D10D4A38944
:403D4000013D012B08D9B4F90E30013304D021463846C04749EA00096B1C04F16804EED13668002EE7D14846BDE8F883B1464846BDE8F88370B50E46B1F90E1090B00029B5
:403D800014461D4614DB01AA00F068F900280FDB029A4FF4806302F47042A2F50052B2FA82F24FF4006052092A60236010B070BDB289002002F0800292B228601AB1402315
:403DC000236010B070BD10464FF48063236010B070BD00BF8A890B46920706D501F1430201211A601A6159617047F0B583B001AB6A460C460546FFF7BDFF0099064628463B
:403E0000FEF742FDB4F90C30D0B19DE80600124F43F08003EF63A3812060206161611AB93343A38103B0F0BD2846B4F90E1000F029F9B4F90C300028F2D043F00103EFE711
:403E40009A05EFD404F1430243F002030121A381226022616161E5E78139000010B50C46B1F90E1000F036F9002803DB236D0344236510BDA38923F48053A38110BD00BFE5
:403E80002DE9F0410C46B1F90C101F46CB051646054607D5B4F90E100223002200F004F9B4F90C1021F48051A1813B463246B4F90E102846BDE8F04100F014B810B50C4640
:403EC000B1F90E1000F0F0F8A389421C0EBF23F4805343F480532065A38110BDB1F90E1000F068B870B50D46084C114606461A46284600232360FCF7D1FA431C00D070BD8C
:403F00002368002BFBD0336070BD00BFD82400202DE9F047254C064625688846D5F8484192469946C4B360681F2817DC411C76B104EB8003C3F888A0D4F888510122824017
:403F40001543022EC4F88851C3F808911ED0831C6160002044F82380BDE8F087144B03B34FF4C870AFF300800446D0B1D5F84831002784E888003846C5F848410121C4F8E7
:403F80008871C4F88C71002EE1D0D1E7D4F88C311A43C4F88C21DAE705F5A674C5F84841C1E74FF0FF30BDE8F08700BFB84200000000000038B5074C0023054608462360E4
:403FC00000F09EF8431C00D038BD2368002BFBD02B6038BDD824002000293DD070B505460C4608B1836B7BB3B4F90C300BB9002070BD21462846FFF709FCE36A064633B1E6
:40400000E169284698470028B8BF4FF0FF36A3891B061CD4216B41B104F14003994202D02846FFF797FD00232363616C21B12846FFF790FD00236364FFF726FD0023A381BB
:40404000FFF724FD304670BDFFF718FDCCE721692846FFF77FFDDDE70020704738B50B46074C0546114618460023236000F050F8431C00D038BD2368002BFBD02B6038BD2F
:40408000D824002038B5074C002305460846236000F046F8431C00D038BD2368002BFBD02B6038BDD824002070B50D46084C114606461A4628460023236000F039F8431C93
:4040C00000D070BD2368002BFBD0336070BD00BFD824002070B50D46084C114606461A46284600232360FCF705FA431C00D070BD2368002BFBD0336070BD00BFD82400205A
:40410000024B58221A604FF0FF307047D8240020024B58221A604FF0FF307047D8240020024B58221A600020704700BFD8240020024B58221A604FF0FF307047D824002006
:40414000000000000A0A0A4552524F52202D205A4D41494E20454E4445442121210A00005A756D6F000000004D5154545F73656E6400000053696D756C61746F7200000004
:404180004D5154542000000000FF00000500000000FF000005000000596F7520686176656E27742073746172746564206D6F746F72730000596F7520686176656E27742082
:4041C00073746172746564207265666C656374616E63652073656E736F720000596F7520686176656E2774207374617274656420756C747261736F6E69632073656E736FA5
:4042000072000000596F7520686176656E277420737461727465642049522073656E736F720000004300000049444C45000000000925630925750925750925750D0A000084
:404240000925750909257525250D0A0009257509093C3125250D0A00C84900401900004F0040300040510040300000000140001000140140800400190140000300400140D9
:40428000000A004C01400002105001401000000060520040401100480600005101404811004808008018014050110048800000500140D01100481000E880FF1F0A0000008C
:4042C000F8B500BFF8BC08BC9E467047ED3700004D00000035200000F8B500BFF8BC08BC9E46704729000000F8420000C880FF1F60080000B89B000000000000AAAAAAAACE
:40430000F88F0000E02400200000E02EC05D00001800000000366E0100000000D483FF1F3C84FF1FA484FF1F00000000000000000000000000000000000000000000000051
:4043400000000000000000000000000024420000000000000000000000000000000000000000000000000000000000000000000000000000000000000000000000000000D7
:4043800000000000000000000000000000000000000000000000000000000000000000000000000000000000000000000000000000000000000000000000000000000000FD
:4043C00001000000000000000E33CDAB34126DE6ECDE05000B0000000000000000000000000000000000000000000000000000000000000000000000000000000000000090
:40440000000000000000000000000000000000000000000000000000000000000000000000000000000000000000000000000000000000000000000000000000000000007C
:40444000000000000000000000000000000000000000000000000000000000000000000000000000000000000000000000000000000000000000000000000000000000003C
:4044800000000000000000000000000000000000000000000000000000000000000000000000000000000000000000000000000000000000000000000000000000000000FC
:4044C00000000000000000000000000000000000000000000000000000000000000000000000000000000000000000000000000000000000000000000000000000000000BC
:40450000000000000000000000000000000000000000000000000000000000000000000000000000000000000000000000000000000000000000000000000000000000007B
:40454000000000000000000000000000000000000000000000000000000000000000000000000000000000000000000000000000000000000000000000000000000000003B
:4045800000000000000000000000000000000000000000000000000000000000000000000000000000000000000000000000000000000000000000000000000000000000FB
:4045C00000000000000000000000000000000000000000000000000000000000000000000000000000000000000000000000000000000000000000000000000000000000BB
:40460000000000000000000000000000000000000000000000000000000000000000000000000000000000000000000000000000000000000000000000000000000000007A
:40464000000000000000000000000000000000000000000000000000000000000000000000000000000000000000000000000000000000000000000000000000000000003A
:4046800000000000000000000000000000000000000000000000000000000000000000000000000000000000000000000000000000000000000000000000000000000000FA
:4046C00000000000000000000000000000000000000000000000000000000000000000000000000000000000000000000000000000000000000000000000000000000000BA
:404700000000000000000000000000000000000000000000000000000000000000000000000000000000000000000000000000000000000000000000000000000000000079
:40474000E880FF1F00000000000000001485FF1F1485FF1F1C85FF1F1C85FF1F2485FF1F2485FF1F2C85FF1F2C85FF1F3485FF1F3485FF1F3C85FF1F3C85FF1F4485FF1F48
:404780004485FF1F4C85FF1F4C85FF1F5485FF1F5485FF1F5C85FF1F5C85FF1F6485FF1F6485FF1F6C85FF1F6C85FF1F7485FF1F7485FF1F7C85FF1F7C85FF1F8485FF1F89
:4047C0008485FF1F8C85FF1F8C85FF1F9485FF1F9485FF1F9C85FF1F9C85FF1FA485FF1FA485FF1FAC85FF1FAC85FF1FB485FF1FB485FF1FBC85FF1FBC85FF1FC485FF1F49
:40480000C485FF1FCC85FF1FCC85FF1FD485FF1FD485FF1FDC85FF1FDC85FF1FE485FF1FE485FF1FEC85FF1FEC85FF1FF485FF1FF485FF1FFC85FF1FFC85FF1F0486FF1F07
:404840000486FF1F0C86FF1F0C86FF1F1486FF1F1486FF1F1C86FF1F1C86FF1F2486FF1F2486FF1F2C86FF1F2C86FF1F3486FF1F3486FF1F3C86FF1F3C86FF1F4486FF1FB8
:404880004486FF1F4C86FF1F4C86FF1F5486FF1F5486FF1F5C86FF1F5C86FF1F6486FF1F6486FF1F6C86FF1F6C86FF1F7486FF1F7486FF1F7C86FF1F7C86FF1F8486FF1F78
:4048C0008486FF1F8C86FF1F8C86FF1F9486FF1F9486FF1F9C86FF1F9C86FF1FA486FF1FA486FF1FAC86FF1FAC86FF1FB486FF1FB486FF1FBC86FF1FBC86FF1FC486FF1F38
:40490000C486FF1FCC86FF1FCC86FF1FD486FF1FD486FF1FDC86FF1FDC86FF1FE486FF1FE486FF1FEC86FF1FEC86FF1FF486FF1FF486FF1FFC86FF1FFC86FF1F0487FF1FF6
:404940000487FF1F0C87FF1F0C87FF1F1487FF1F1487FF1F1C87FF1F1C87FF1F2487FF1F2487FF1F2C87FF1F2C87FF1F3487FF1F3487FF1F3C87FF1F3C87FF1F4487FF1FA7
:404980004487FF1F4C87FF1F4C87FF1F5487FF1F5487FF1F5C87FF1F5C87FF1F6487FF1F6487FF1F6C87FF1F6C87FF1F7487FF1F7487FF1F7C87FF1F7C87FF1F8487FF1F67
:4049C0008487FF1F8C87FF1F8C87FF1F9487FF1F9487FF1F9C87FF1F9C87FF1FA487FF1FA487FF1FAC87FF1FAC87FF1FB487FF1FB487FF1FBC87FF1FBC87FF1FC487FF1F27
:404A0000C487FF1FCC87FF1FCC87FF1FD487FF1FD487FF1FDC87FF1FDC87FF1FE487FF1FE487FF1FEC87FF1FEC87FF1FF487FF1FF487FF1FFC87FF1FFC87FF1F0488FF1FE5
:404A40000488FF1F0C88FF1F0C88FF1F1488FF1F1488FF1F1C88FF1F1C88FF1F2488FF1F2488FF1F2C88FF1F2C88FF1F3488FF1F3488FF1F3C88FF1F3C88FF1F4488FF1F96
:404A80004488FF1F4C88FF1F4C88FF1F5488FF1F5488FF1F5C88FF1F5C88FF1F6488FF1F6488FF1F6C88FF1F6C88FF1F7488FF1F7488FF1F7C88FF1F7C88FF1F8488FF1F56
:404AC0008488FF1F8C88FF1F8C88FF1F9488FF1F9488FF1F9C88FF1F9C88FF1FA488FF1FA488FF1FAC88FF1FAC88FF1FB488FF1FB488FF1FBC88FF1FBC88FF1FC488FF1F16
:404B0000C488FF1FCC88FF1FCC88FF1FD488FF1FD488FF1FDC88FF1FDC88FF1FE488FF1FE488FF1FEC88FF1FEC88FF1FF488FF1FF488FF1FFC88FF1FFC88FF1F0489FF1FD4
:404B40000489FF1F0C89FF1F0C89FF1F00000200FFFFFFFF000000000000000000000000000000000000000000000000000000000000000000000000000000000000000026
:404B800000000000000000000000000000000000000000000000000000000000000000000000000000000000000000000000000000000000000000000000000000000000F5
:404BC00000000000000000000000000000000000000000000000000000000000000000000000000000000000000000000000000000000000000000000000000000000000B5
:404C00000000000000000000000000000000000000000000000000000000000000000000000000000000000000000000000000000000000000000000000000000000000074
:404C40000000000000000000000000000000000000000000000000000000000000000000000000000000000000000000000000000000000000000000000000000000000034
:020000040003F7
:0200000480007A
:40000000084F0040065200400864004004650040570001403B010140630201404C03014065040140520501405F06014049070140630801404C090140510A0140420B01400C
:400040005D0C01403C0D0140580E0140320F01405B140140571501405B160140561701400C1801404D190140541A01405B1B01400A40014013410140264201401543014092
:4000800003440140094501400746014004470140104801401F490140114C0140104D01400550014001800A870D8016871980224B25802EC908400C20183019207802790233
:4000C000830F840F8567860F890F8B0F8D0F8F0F8472873889388A7200180403070108020B010C030F01160818041E041F0222012301270128102E042F01321834043502E1
:400100003603370138803E503F4040514102450B460E470C481549FF4AFF4BFF4EF04F44500C52805608580459045A045B045C995D935F0166C06A406B028102880A8A048E
:400140008B018C038E0C91019403960499019E05A608A803AA04B00FB503B920BA02C005C640C9FFCA07CBFFCC40CD20CEF0CF05D008D804D904DA04DC33DD03DF01E040A0
:40018000E1A8E240E32000A20120020303100520060109A00A200C800D040E0110821110171419141A221B101C80212022402704288029402B203180360237103A083B60C6
:4001C0003C203E014201431048204A024C804E01500451045340551058406180700285108B108E08C0CFC2A7C46BCA0BCCA8CEAED00CD218D608D808E030E60A0401060E24
:400200000A0C0B020C010E0616081B031E031F012305240C2603270629062B01320F33073A083B084064410249FF4AFF4BFF4DA04F015018580459045A045C335D095F0121
:400240006040628064406540668068406A506BA86C406D206E506FA88003870889088D018E049506960499049A019F08A108A506AB08AC02AF02B004B106B301B403B70878
:40028000B902BE01BF45C064C102C9FFCAFFCBFFCDAFCE07CF01D018D401D604D804D904DA04DB04DC09DD39DF01E040E280E440E540E680E840EA50EBA8EC40ED20EE50D8
:4002C000EFA800820609071408040A040C800F1011A0131016201A441C201F0822452420271029082A212B8A2E082F883080312832803680371038283B803D2040084280F1
:400300004408468049104F2059225A88620265026780680169806B01870190089380980899149A019B049C809F10A0A0A110A310A411A720AA40AD40B040B340B408C0E952
:40034000C2A6C421CAEFCC3ECE2ED0A5D224D60FD801E002E8A0EA40EE0806030E010F081501160517061806190C1A011B031E061F0C22022501270E2F033207350F3A0806
:400380003B204064410249FF4AFF4BFF4DAF4E074F01501854035604580459045A045B045C225D995F056040628064406540668068406A506BA86C406D206E506FA885203F
:4003C000871889209512972099189B229F06A101A201A528A938AB04AF01B13EB501B601BF10C064C102C50CC620C74EC83DC9FFCAFFCBFFCDAFCE07CF01D018D407D804F4
:40040000D904DA04DB04DC39DD99DF01E040E280E440E540E680E840EA50EBA8EC40ED20EE50EFA80108030209A81240168019081F8021202210274829082B022C202E80E2
:400440002F8831A8328037543A403D28400842804408468049104F2455015688572058145A405B015C405E205F0860806608670479807A107B20834084108840918092427F
:40048000980899109A019B149C809D089E80A020A110A318A440A568A702A904AA02AC04AF20B204B404B520C005C207C418CAFACC7ECE68D0A5D224D67FD861DE08E20476
:4004C000E401E60AEA0CEE200201030407020B010E041B02200429012A023004320233013401350237043F104046420149FF4AFF4BFF4F01501852805407580459045A0429
:400500005B045C555D505F016040624064406540668068806A806C806E8083088401870489308A018B408E018F0491089531960197C099A09B419F08A108A531A740A8019D
:40054000AB80AD02AF50B108B3F0B504B601B703B982BB08BE40BF10C046C201C9FFCAFFCBFFCD83CE03CF01D018D804D904DA04DC20DF01E040E240E440E540E680E88088
:40058000EA80EC80EE80003001080312050106020A20120815101604170219401D201E841F082004210822882340272A288029182B022F08300131083250362038103902E3
:4005C0003A203B483D103E06400242804442468049204D205E805F2975017D047E1080108120894092229440984099089E40A101A548A680A702A904AA01AF01B044C097F2
:40060000C204C452CA2FCC2FCEEFD099D224D6F0E004E420E601EA2202031402160117011B012C012E022F023003330135023E014051420445EC4702481349FF4AFF4BFFD5
:400640004D834E034F0150185280580459045A045B045C405D405F016040624064406540668068806A806C806E808113830C85018A018B038C078D089001910F920693104D
:400680009406950C99049C069D1F9E01A007A103A402A808A902AC04AD0CAF13B208B310B407B70FB908BB80BE04C032C105C206C9FFCAFFCBFFCF01D018D401D604D80414
:4006C000D904DA04DB04DC33DD29DF01E040E240E440E540E680E880EA80EC80EE80009001800402064009080A820D400E200F021020118012881340140119041A041E80AC
:400700002001214022402310272429A22E80302031083281340136203705381139083B4041104210474248044A024C014F055708584059055B106201768081018208834881
:400740009120921097059A409E019F41A004A212A640A801AC20B001B105B580C013C22DC48FCA1DCC6FCE0FD096D21CD60FD801E801EAA0EE80030206030A0D100A110685
:4007800016062101260F2D043106320F37013A083F40403241054206450E4620470C481949FF4AFF4BFF4D834E034F015018580459045A045C915D095F0160406240644053
:4007C0006540668068806A806C806E8082028604881089308A208BC68D5A8E018FA090309530960497C398049C089FFFA202A410A620AC30AD50AFADB038B201B3F0B40423
:40080000B50FB602BA03BB20BE50D283D403D604D804D904DB04DF010010010807590AA00C400E54122015401640170419081C081E601F40200121012728288029802E40DC
:40084000320234403640370839023BC03D504110421048244A02511452105F6566026D506F047401764080808201840486028A10901092B49B109D089E10A222A820AA0167
:40088000AF48B040C0F6C2FCC4B4CA19CC51CE31D006D20CD6F0D880E620EE0404080804100E1402180E1B021F0121042A012D062E0E320E3306340135014051420349FF2C
:4008C0004AFF4BFF4F0150185280580459045A045B045C995D915F016040624064406540668068806A806C806E80861E880689028A188B048C0A8D068E1492019406950684
:400900009618980A99019A149E01A502A704B307B41EB601BB0CBE40C051C202C5ECC602C807C9FFCAFFCBFFCD83CE03CF01D018D283D403D604D804D904DA04DB04DC116C
:40094000DD11DF01E040E240E440E540E680E880EA80EC80EE80014002240630070809800A280B400C010E28175019501E3420102204271829082A042C41301032243320AB
:4009800037503950418043204410458049054B404F4051805955620169506AA073407740840186028F0497C09C209E20A224A612A704A908AC40B610C067C27FC4C0CA922E
:4009C000CC36CE0CD05CD218D60FD801EA4103020C0611031501180419041E031F042F04310333043401360639203F1440134105420649FF4AFF4BFF4F0150185804590476
:400A00005A045C995D095F016040624064406540668068806A806C806E80850887108B028F18910697049A019B029F01A302A701A910AB08B101B201B306B518BF11C013D7
:400A4000C105C206C5ECC702C813C9FFCAFFCBFFCD83CE03CF01D018D280D403D604D804D904DA04DB04DC91DD99DF05E040E240E440E540E680E880EA80EC80EE8002027E
:400A800008200A010F0819501A011F042101221023102440262429402E082F443118320233403616374039023E203F484348450447404A024B104E024F155504560857085F
:400AC0005C405F15644077407E028501C001C243CAE8CCFFCE71D05AD23CD6F0D880DE10E60802080506060109020D060E010F0110021507160419071D042101220423067E
:400B000024022701280230013202340C35073E11404341054202440645C0470E481249FF4AFF4BFF4C624DA04EF04F41500C56025713580459045A045B045C225D225F01CD
:400B40006640670269106A306B106D106E106F128301840688028B019006920194079C04A001A206A601AC06AE01B207B301BA08C005C604C9FFCA07CBFFCC40CD20CEF0AB
:400B8000CF05D008D804D904DA04DC52DD02DF01E040E1A8E240E32000840280050406080AA00D080E010F4010A0111014821704181019181B011F082004271028802908AB
:400BC0003010318838083B603D203E0240944304484049104A024E015304564057025901682069106A807004718472098001850886098710889289098A828C208D048F10B6
:400C000090029222934095119708988099019A029C029E40A118A280A420A70BAA10AB80AC84B005B108B348C06DC2BCC4BECA03CC0ECEAED007D21CD601E008E40BE640D4
:400C4000E880EA05EE0E030207010B011E0121023102360137013F014020410345D24715483349FF4AFF4BFF4DA04F045018580459045A045C595D055F01604062C06440DB
:400C8000654066C068C06AC06CC06EC0812083408404851C8702880489108B0C8D408FA090049303940495E099E09D809F40A114A50CA711A909AA01AB10AC02AD10B004EE
:400CC000B11FB201B402B7E0BB08BE11C064C102C50CC6E0C7B0C829C9FFCAFFCBFFCEF0CF44D00CD418D604D804D904DA04DB04DC23DD22DF01E6C0EA40EB0200080308DA
:400D0000080209080A800D010E010F401004120219011A141F4021482282244229182A412F403020320633803410362039853B103D2A3E0143124410453048104A084B109E
:400D40004E204F0150105201550456065B026004610263028210851086048A048B028D02900491049202946095029680970999189B109C819E46A121A208A410A620A7027F
:400D8000A910AA80AC02B140B620C006C28CC403CA8FCC0FCEEFD065D204D601D80DE001E408E613EA02EE0204030A0314031803220324012A032C02360358045C025F0168
:400DC000004001400380051007200A040BA10C100E201080131014081540170A184419041D80208A2101228429222A442B033020310832813810390A3B40401042044302DE
:400E0000488553105A01608680808204844085108780880489808A408C028D04920493509410950896029B049C019D22A301A460A548A6A0AE40AF22B040B710C069C26FE5
:400E4000C4FACA0FCC0FCE0FD007D20CD601D80DE220E420E602E880EC400019010402060454062109060A180B010C2A0E411106121813011418150619021D071E18201880
:400E800024E7270128E72C802D012F06300731073280346036183B0256025712580459045B045C335D305F018008863388418A808C4F8E10904C92239473960C98049E400B
:400EC000A00CA403A87FAC02B20FB47CB680BA28C030C105C501C602C805C9FFCAFFCBFFCDA0CF04D018D804DA04DC02DD04DF01E040E2C0E440E540E6C0E8C0EAC0ECC025
:400F0000EEC0001401820660070A080409020A020C100D810E1010021114128014A015401720181419261A011D901E101F182201280829042A202B013020310832813920DE
:400F40003A024540460247044E204F8057405A086802691470207108720284188640882089138A108B588C808F0191609208941096039781980499809B269C089D329F0854
:400F8000A280A301A420A548A630A708A840AC11AF08B184B322C0FFC2FDC4FFCA0ACC0FCE05D040D210D602E090E220E411E680E8A0EA07EC20EE88300133803682382086
:400FC000860889808C10CCF0CE10E64031043240372884209430990C9A089C01A401A580A6C2A780A904B001B240B508CCF0E240EE80181019401D801E803E1059085D082A
:401000006310650867108010878090089430968099089A089C019D40A020A108A401A580A6C2A780A804AB28AD40B108C6F0CE20D6C0D8C0E220E610EAA0EC10EE802C01C1
:40104000610866086820702474248902900896909A089C01A024A108A401A682B004CA20D8C0DA40DCE0DE2012808680C40803200B080E088F209F20AB20C008C203E202BF
:40108000031007209F20AA04B304C00CEA019301AB01B710EE025F207020824084048E0296909B20A020A401A502A682AF20D620DC20E6C0EA4009021220142020025808A2
:4010C000660174047B02800882208E019C20A004A302A401A502AA10AB02AE80B020C210C430C810D640D880DC80DE20E480E620EAA0EE100C040D10132815041F805F014D
:401100007B107F20850489029301C205C40EC601D601DE03E4041080710283108880A102A710AB28AD10AF80B004B320C408DC01E601E801EE01103C11011A2C1B011C1C3F
:401140000280000043000000EFFF03C000000000063C0002000400800000000304100200023C04010018080000080100063F0000000001400000000400000880002700185B
:40118000061F012008C0000000000082000014144305020006C0E0000AFFFFFF62A0F0410C00000018000400040404043233000100000000000040020010301000101012EB
:4011C000000000000000000000000000000000003F0100000000000008012D011F0102010082820000000400830040B0B30083000000000000333300020000004000A04B11
:401200004B00400000000000050000DFDA0000002000000000F1F10060000000010018010000000000000000000000000000000000000000000000000000000000000000E9
:40124000000000000000000000000000000000000000000000000000000000000000000000000000000000000000000000000000000000000000000000000000000000006E
:40128000000000000000000000000000000000000000000000000000000000000000000000000000000000000000000000000000000000000000000000000000000000002E
:4012C00000000000000000000000000000000000000000000000000000000000000000000000000000000000000000000000000000000000000000000000000000000000EE
:4013000000000000000000000000000000000000000000000000000000000000000000000000000000000000000000000000000000000000000000000000000000000000AD
:0200000490006A
:0400000000004005B7
:0200000490105A
:04000000BC90ACAF55
:0200000490303A
:02000000C891A5
:0200000490402A
:4000000000000000000000000000000000000000000000000000000000000000000000000000000000000000000000000000000000000000000000000000000000000000C0
:400040000000000000000000000000000000000000000000000000000000000000000000000000000000000000000000000000000000000000000000000000000000000080
:400080000000000000000000000000000000000000000000000000000000000000000000000000000000000000000000000000000000000000000000000000000000000040
:4000C0000000000000000000000000000000000000000000000000000000000000000000000000000000000000000000000000000000000000000000000000000000000000
:0200000490501A
:0C00000000012E16106900012E39D8FAFC
:00000001FF