:4000000000800020110000002D2100002D21000008B5044B1A6803F53F5302331A6002F0A5F800BFFA46004010B5054C237833B9044B13B10448AFF300800123237010BD3C
:400040009889FF1F00000000D07E0000084B10B51BB108490848AFF300800848036803B910BD074B002BFBD0BDE81040184700BF000000009C89FF1FD07E0000C880FF1FB6
:400080000000000000B583B00246009103460021084600F0BDF903B05DF804FB08B501F0F9FD034803F07AFD002001F09DFA08BDE07E000008B5064B064ADA62064A9A630F
:4000C000064ADA6302F0DAF802F03CF908BD00BF0080FF1F411A0000A11A0000E51A000000B583B0FFF7E6FF4FF4807000F00AF900F038FA002401940123009323464FF42A
:400100007A720F490F4801F04DF800F039F801940225009523464FF47A720B490B4801F041F800F069F90194009523464FF47A720749084801F036F801F066F8FEE700BF4D
:40014000FC7E00009D000000047F0000A5010000107F00002D0600004FF0A00383F31188BFF36F8FBFF34F8FFEE700BF4FF0A00383F31188BFF36F8FBFF34F8FFEE700BFD3
:4001800010B500220C21202000F048FC044C606000220421202000F041FC206010BD00BFB489FF1F10B584B000240FE01F4800F1080104EB840213010B4404A941F8103D14
:4001C00000231A46006800F043FC01341F2CEDDD4FF0FF3201A9154B586800F00DFD18B94FF47A7001F07CF9114C23689B6805220121104803F012F823689968019802F063
:400200004FFE23689968202002F00EFE23689968029802F045FE236899680A2002F004FE039B002BD4D002989847D1E7B489FF1F2085FF1F1C7F000000B583B000230193AC
:400240008DF803308DF8023002F02CF88DF803009DF8033013F0200F0BD002F01DF88DF80200002301AA0DF102010848006800F08BFC019B3BB14FF08052054B1A60BFF3FB
:400280004F8FBFF36F8F03B05DF804FBBC93FF1F04ED00E000B583B0002301938DF803308DF8023002F00CF88DF803009DF8033013F0020F15D001AA0DF102010F4B586858
:4002C00000F0AAFD012809D19DF8020001F0FEFF01F0F6FF10F0040FEDD002E0002001F0E9FF019B3BB14FF08052054B1A60BFF34F8FBFF36F8F03B05DF804FBBC93FF1F37
:4003000004ED00E038B5054601E001F0C5FF01F0C9FF10F0200FF8D100220121284600F07DFB0B4C206002F0E9F80A4802F0D8F800220121284600F071FB606002F0B0F82D
:40034000054802F09FF8002001F0B4FF38BD00BFBC93FF1F390200009502000008B50A460146054B186800F047FC012801D0002008BD012008BD00BFBC93FF1F10B582B0B1
:4003800002AC04F8010D00230A4621460948406800F05EFB012801D1012400E0002401F061FB032001F086FF01F06CFB204602B010BD00BFBC93FF1FF8B505460C464FF06D
:4003C000FF310C4B186800F093FC38B9F8BD6F1C00212878FFF7D2FF34463D46661E002CF5DC00231A4619460248006800F030FBF8BD00BFC493FF1F08B50022082103207D
:4004000000F00CFB014B586008BD00BFC493FF1F10B582B0049C8DF800008DF801108DF802208DF8033001940B4B9B6813B90B4803F0B4FB012C01D80223019300234FF0E7
:40044000FF3269460448406800F002FB204601F047F802B010BD00BFC493FF1F347F00000122014B9A607047C493FF1F08B50022034B9A6005210348FFF79EFF08BD00BF7B
:40048000C493FF1F247F00000122014BDA607047C493FF1F10B50446274BDB6813B9274803F07CFB244B1B8A9BB2254A1288934202D20023238001E0012323801E4B5B8A17
:4004C0009BB21F4A5288934202D20023638001E001236380184B9B8A9BB2194A9288934202D20023A38001E00123A380124BDB8A9BB2134AD288934202D20023E38001E096
:400500000123E3800C4B1B8B9BB20D4A1289934202D20023238101E001232381064B5B8B9BB2074A5289934202D20023638110BD0123638110BD00BFC493FF1F507F0000DA
:40054000CC80FF1F10B4064C20806180A280BDF808206281BDF804202281E38010BC7047CC80FF1F08B5012000F002FB014B186008BD00BFC493FF1FF8B50C4617464FF0A9
:40058000FF31124B186800F0B3FBE0B100250FE023780A2B04D14FF0FF310D20FFF7EEFE661C4FF0FF312078FFF7E8FE01353446BD42EDDB00231A4619460448006800F066
:4005C00047FA3846F8BD0020F8BD00BFC493FF1F002070470122014B5A627047C493FF1F08B5054B5B6A13B9044803F0D7FA0022014B9A6208BD00BFC493FF1FA07F000020
:4006000008B5084B5B6A33B9074803F0C7FA02E00A2000F065FF034B9B6A002BF8D0FFF7DFFF08BDC493FF1FA07F000070B588B0002306930793594B53F8080F04901B7942
:400640008DF81430BDF81A3023B1554B9B681BB9192202E0192200E0052206A9504B586800F0CAFA012801D1079D00E005254C4B9B68CBB19DF81830003318BF01239DF8EB
:4006800019200AB1022200E0002213438DF81030DB438DF811309DF81A308DF812309DF81B308DF8133004E000238DF812308DF8133000F0E9FD01906CE03C2D01D93226EF
:4006C00000E02E46AD1B8DF81460052104A8FFF773FE002404E09DF808301F2B00D80134072C06DC642102AB1819FFF737FE0028F1D1082C4AD19DF8082002F00101284B80
:400700009A6A0A449A62DB692BB19DF8093003F07F03234A1362224BDB68002B36D09DF80A3003EB830303EB83039A0093B21C4A13829DF80B3003EB830303EB8303990063
:4007400089B251829DF80C3003EB830303EB8303990089B291829DF80D3003EB830303EB8303990089B2D1829DF80E3003EB830303EB8303990089B211839DF80F3003EB05
:40078000830303EB8303990089B25183314601A800F070FE002D90D154E700BF247F0000C493FF1F00F1080343604FF0FF328260C360036100230360704700BF002303617E
:4007C000704700BF43684B609A688A609A68516099600861036801330360704730B40D68B5F1FF3F01D1026907E000F1080200E01A4653681C68A542FAD253684B60996086
:400800008A605160086103680133036030BC704703694268816891608268416851605A68904201D182685A60002202611A68013A1A601868704700BF436A23B1036B1868B0
:40084000C0F1050070470020704700BF10B5044601F008F9A26BE36B9A4201D1012400E0002401F00FF9204610BD00BF10B5044601F0F8F8A36B0BB9012400E0002401F07B
:4008800001F9204610BD00BF70B504461646856B026C3AB9036843BB406800F0F5FF0023636029E06EB9806802F0E2FFA268236C1344A3606268934219D32368A36000203E
:4008C0001AE0C06802F0D4FF236C5B42E2681A44E26021688A4202D262681344E360022E07D145B1013D002006E0002004E0002002E0002000E000200135A56370BD00BFDC
:40090000026C72B110B5C3681344C3604468A34201D30368C3600C46C168204602F0A8FF10BD704738B5054601F09CF895F8454064B20AE06B6A53B105F1240000F0C4FE57
:4009400008B100F031FF013C64B2002CF2DCFF2385F8453001F096F801F084F895F8444064B20AE02B6953B105F1100000F0ACFE08B100F019FF013C64B2002CF2DCFF23D8
:4009800085F8443001F07EF838BD00BF38B504460D4601F067F82168E26B236C03FB021060600020A063A160013A02FB0313E360FF2384F8443084F845307DB92369ABB146
:4009C00004F1100000F080FE80B14FF08052094B1A60BFF34F8FBFF36F8F07E004F11000FFF7E0FE04F12400FFF7DCFE01F04AF8012038BD04ED00E038B51D46049C0B4630
:400A000009B9246000E02260E063236401212046FFF7BCFF84F84C5038BD00BFF0B583B0054617460E4611B100FB01F000E00020503001F0B3F8044638B100903B4600F16C
:400A4000500231462846FFF7D7FF204603B0F0BDF0B585B004460F4601921E46002501F001F8A26BE36B9A4201D3022E21D1324639462046FFF708FF636A6BB104F12400A5
:400A800000F022FE88B14FF08052324B1A60BFF34F8FBFF36F8F08E038B14FF080522D4B1A60BFF34F8FBFF36F8F00F0EBFF01204EE0019B1BB900F0E5FF002048E01DB906
:400AC00002A800F03BFE012500F0DCFF00F0D2FB00F0C8FF94F844305BB2B3F1FF3F02D1002384F8443094F845305BB2B3F1FF3F02D1002384F8453000F0C4FF01A902A80B
:400B000000F026FEF0B92046FFF7A0FEA0B1019904F1100000F0C8FD2046FFF703FF00F03DFC00289BD14FF080520A4B1A60BFF34F8FBFF36F8F92E72046FFF7F3FE00F068
:400B40002DFC8CE72046FFF7EDFE00F027FC002005B0F0BD04ED00E048B108B5002141600160C1600B460A46FFF772FF08BD704710B5024600210120FFF750FF0446FFF7DA
:400B8000EBFF204610BD00BFF8B5EFF311864FF0A00484F31188BFF36F8FBFF34F8F856BC46BA54201D3022B1BD11746054690F8454064B21A46FFF767FEB4F1FF3F0AD1C9
:400BC0006B6A83B105F1240000F07EFD68B177B1012038600CE0013464B285F84540012006E0002004E0012002E0012000E0012086F31188F8BD00BFF0B585B004460F4605
:400C00000192002600F02EFFA56BC5B139462046FFF776FE013DA563236963B104F1100000F052FD38B14FF08052304B1A60BFF34F8FBFF36F8F00F025FF012053E0019BAC
:400C40001BB900F01FFF00204DE01EB902A800F075FD012600F016FF00F00CFB00F002FF94F844305BB2B3F1FF3F02D1002384F8443094F845305BB2B3F1FF3F02D1002393
:400C800084F8453000F0FEFE01A902A800F060FDF0B92046FFF7EAFDA0B1019904F1240000F002FD2046FFF73DFE00F077FB0028A8D14FF080520D4B1A60BFF34F8FBFF318
:400CC0006F8F9FE72046FFF72DFE00F067FB99E72046FFF727FE00F061FB2046FFF7C6FD00288FD0002005B0F0BD00BF04ED00E070B584B0044601910026354600F0B2FE1C
:400D0000A36BCBB1013BA363236813B900F050FE6060236963B104F1100000F0D5FC38B14FF080523B4B1A60BFF34F8FBFF36F8F00F0A8FE01206BE0019B1BB900F0A2FEF0
:400D4000002065E01DB902A800F0F8FC012500F099FE00F08FFA00F085FE94F844305BB2B3F1FF3F02D1002384F8443094F845305BB2B3F1FF3F02D1002384F8453000F075
:400D800081FE01A902A800F0E3FC40BB2046FFF76DFDF0B123683BB900F064FE606800F00BFD064600F06EFE019904F1240000F07BFC2046FFF7B6FD00F0F0FA00289DD15D
:400DC0004FF08052134B1A60BFF34F8FBFF36F8F94E72046FFF7A6FD00F0E0FA8EE72046FFF7A0FD00F0DAFA2046FFF73FFD002884D066B100F036FE2046FFF71DFD014648
:400E0000606800F085FD00F03DFE002000E0002004B070BD04ED00E02DE9F041EFF311864FF0A00383F31188BFF36F8FBFF34F8F846BFCB19046074690F844506DB2FFF79A
:400E40005FFD013CBC63B5F1FF3F0DD13B699BB107F1100000F038FC80B1B8F1000F0FD00120C8F800000CE001356DB287F84450012006E0002004E0012002E0012000E0D0
:400E8000012086F31188BDE8F08100BF094B9B6A1B680BB9012300E0002323B14FF0FF32044BDA627047034B9A6AD268D2685268DA627047F093FF1F2DE9F04781460D4662
:400EC00017469A46089EDDF824800A9C9200A521206B02F0A7FD236B07F18042013A03EB820727F00707002306E0E95CE21882F83410EA5C12B101330B2BF6D9002384F871
:400F00003F30042E00D90426E662A6640025E564201DFFF753FC04F11800FFF74FFC2461C6F10506A66164622565C4F8805484F884544FF48562294604F1580002F072FDB4
:400F400004F55173E36504F56B73236604F214436366184BC4F88C3004F5807301200021C3E9000143F20E33A4F808314AF6CD33A4F80A3141F23423A4F80C314EF26D636B
:400F8000A4F80E314DF6EC63A4F810310523A4F812310B23A4F8143152464946384600F037FD2060B8F1000F01D0C8F80040BDE8F08700BFC07F000070B5002407E004EBC6
:400FC0008402930010481844FFF7ECFB0134042CF5D90E4C04F194063046FFF7E3FB04F1A8052846FFF7DEFB04F11400FFF7DAFB04F1BC00FFF7D6FB2046FFF7D3FBA66284
:40100000C4F8D05070BD00BF2094FF1FF093FF1F38B5054600F026FD264BD3F8D4200132C3F8D420D3F8D8304BB9224BC3F8D850D3F8D430012B10D1FFF7BEFF0DE01D4B0D
:40104000D3F8DC304BB91B4BD3F8D830DA6AEB6A9A4202D8174BC3F8D850164CD4F8E0300133C4F8E0302B64EB6A012202FA03F1D4F8E4200A43C4F8E42004F1300003EBA3
:4010800083039A00291D1044FFF79CFB00F0FAFCD4F8DC306BB1D4F8D830DA6AEB6A9A4207D24FF08052044B1A60BFF34F8FBFF36F8F38BDF093FF1F04ED00E010B504465D
:4010C000583002F06BFF206B00F0C2FD204600F0BFFD10BD38B517E000F0C4FC0D4CD4F8C830DD68281DFFF793FBD4F8D430013BC4F8D430D4F8E830013BC4F8E83000F084
:40110000C1FC2846FFF7DAFF024BD3F8E830002BE2D138BDF093FF1F08B5FFF7DBFFFCE770B504460E461E4BD3F8EC50D3F8D8000430FFF76DFB60B9194BD3F8D820D16ABE
:40114000012202FA01F1D3F8E42022EA0102C3F8E420B4F1FF3F07D136B11148D0F8D8100431FFF72FFB70BD2C440D4BD3F8D8305C60A54208D90A4BD3F8D000D3F8D810D2
:401180000431FFF72BFB70BD054DA86AD5F8D8100431FFF723FBEB6A9C4200D2EC6270BDF093FF1F2DE9F04385B006460F4615469846900000F0F2FC68B181464FF4916054
:4011C00000F0ECFC044610B1C0F8309004E0484600F03EFD00E000248CB10023039302940D9B01930C9B009343462A4639463046FFF762FE2046FFF70BFF012001E04FF006
:40120000FF3005B0BDE8F08300B583B0144B019300230093642213491348FFF7C3FF01281AD14FF0A00383F31188BFF36F8FBFF34F8F0E4BD3F8D82058320D490A604FF042
:40124000FF32DA620122C3F8DC200022C3F8EC2001F0F0F800F06EFC03B05DF804FB00BFE494FF1FC47F000019110000F093FF1F2085FF1F034AD2F8F0300133C2F8F03099
:40128000704700BFF093FF1F014BD3F8EC007047F093FF1F2DE9F0413F4BD3F8F030002B66D13D4BD3F8EC700137C3F8EC7067B99A6AD3F8D0109962C3F8D020D3F8F82048
:4012C0000132C3F8F820FFF7E1FD334BDB6A9F4205D24FF000083FE04FF0010801E04FF000082D4B9B6A1B680BB9012300E0002323B14FF0FF32284BDA622DE0264B9B6A62
:40130000DB68DC6863689F4202D2234AD36223E0261D3046FFF77CFAA36A1BB104F11800FFF776FAE36A012202FA03F11A4DD5F8E4200A43C5F8E42005F1300003EB830350
:401340009A0031461044FFF73DFAE26AD5F8D830DB6A9A42C0D2C4E70F49D1F8D830DB6A03EB83039A000A44136B012B09D80AE0094AD2F8FC300133C2F8FC304FF0000873
:4013800001E04FF00108044BD3F800310BB14FF001084046BDE8F081F093FF1F70B500F061FB324BD3F8F020013AC3F8F020D3F8F030002B53D12D4BD3F8D43043BB002406
:4013C00050E02A4C236ADD6805F11800FFF720FA2E1D3046FFF71CFAEB6A012202FA03F1D4F8E4200A43C4F8E42004F1300003EB83039A0031461044FFF7E4F9EA6AD4F854
:40140000D830DB6A9A4204D30122C4F8002100E00025164B5B69002BD3D10DB1FFF736FD124BD3F8FC4064B1FFF734FF18B101220E4BC3F80021013CF6D100220B4BC3F8D2
:40144000FC200A4BD3F800315BB14FF08052084B1A60BFF34F8FBFF36F8F012402E0002400E0002400F00EFB204670BDF093FF1F04ED00E038B505460C46FFF7FBFE164BCE
:40148000D3F8EC002A681319904205D29A4209D9984209D300220CE09A4207D8984207D3002206E0002204E0012202E0012200E001222B601AB10021181AFFF731FEFFF720
:4014C0006DFF38B94FF08052044B1A60BFF34F8FBFF36F8F38BD00BFF093FF1F04ED00E010B548B10446FFF7C5FE00212046FFF717FEFFF753FF00E0002038B94FF08052B2
:40150000034B1A60BFF34F8FBFF36F8F10BD00BF04ED00E0324BD3F8F03023B10122304BC3F80021704710B52D4C0023C4F8003100F030FFD4F80431984205D9D4F8D820EF
:40154000C31A116D0B441365254BC3F80401D3F8D8301B6B1A68B2F1A53F0BD15A68B2F1A53F07D19A68B2F1A53F03D1DB68B3F1A53F07D01A4BD3F8D800D3F8D81034319B
:40158000FEF7EAFD164AD2F8E430B3FA83F3DBB2C3F11F039800C418A10011444C6B64684C6302F130011844820008320A44944206D1606803EB83018A0009490A445063A1
:4015C000074903EB83039A000A44536BDB68C1F8D830D1F8D8305833024A136010BD00BFF093FF1F2085FF1F38B5044600F03AFA14B92B4BD3F8D840251D2846FFF708F94A
:4016000080B9E26A02EB82018B0025490B441B6B43B9012303FA02F2D1F8E43023EA0202C1F8E420A36A1BB104F11800FFF7F0F829461B48FFF7C6F894F88434DBB2012BE4
:4016400002D1002384F8843400F01CFA144BD3F8DC302BB100F006FAFFF718FC00F012FA0F4BD3F8D8309C4219D10D4BD3F8DC3043B14FF080520B4B1A60BFF34F8FBFF3F7
:401680006F8F38BD064B1A68D3F8D4309A4204D10022034BC3F8D82038BDFFF73BFF38BDF093FF1F04ED00E010B50C46054BD3F8D8101831FFF792F801212046FFF730FDA7
:4016C00010BD00BFF093FF1F38B5C368DC6804F118052846FFF79CF8164BD3F8F030B3B9251D2846FFF794F8E36A012202FA03F11048D0F8E4200A43C0F8E420303003EB92
:4017000083039A0029461044FFF75CF803E029460948FFF757F8E26A064BD3F8D830DB6A9A4204D90120034BC3F8000138BD002038BD00BFF093FF1F0494FF1F034BD3F8C2
:40174000F8200260D3F8EC3043607047F093FF1FF8B504460D4600F085F9124BD3F8EC106268881A2B68B3F1FF3F14D027680D4ED6F8F860B74201D091420ED2984206D22D
:401780001B1A2B602046FFF7D9FF002406E000232B60012402E0002400E0012400F072F92046F8BDF093FF1F0122024BC3F80021704700BFF093FF1F00285CD038B5034649
:4017C000C26A2F49D1F8D810C96A8A424AD28169002906DB2A49D1F8D810C96AC1F105018161586902EB82029100264A1144884201D1012200E000226AB31C461D1D284624
:40180000FFF706F880B9E26A02EB82018B001C490B441B6B43B9012303FA02F2D1F8E43023EA0202C1F8E4201548D0F8D830DB6AE362012404FA03F1D0F8E4200A43C0F89F
:40184000E420303003EB83039A0029461044FEF7B9FF204638BD0A4AD2F8D820D26ADA62012038BD826C064BD3F8D830DB6A9A4203D3002038BD00207047012038BD00BFBD
:40188000F093FF1F2094FF1F002838D038B50346C26C013AC264C06A996C884231D092BB1C461D1D2846FEF7B3FF80B9E26A02EB82018B0015490B441B6B43B9012303FAF8
:4018C00002F2D1F8E43023EA0202C1F8E420A36CE362C3F10502A261012404FA03F10B48D0F8E4200A43C0F8E420303003EB83039A0029461044FEF765FF204638BD0020F3
:401900007047002038BD002038BD00BFF093FF1F002848D038B50346826C8A4200D20A46D96A8A423ED0D86C01283BD1DA629869002802DBC2F105029A61586901EB810158
:401940008A0019490A44904201D1012200E0002242B31C461D1D2846FEF75AFF80B9E26A02EB82018B0011490B441B6B43B9012303FA02F2D1F8E43023EA0202C1F8E420AC
:40198000E36A012202FA03F10848D0F8E4200A43C0F8E420303003EB83039A0029461044FEF710FF38BD70472094FF1FF093FF1F064BD3F8D8302BB1044BD3F8D820D36CFD
:4019C0000133D364014BD3F8D8007047F093FF1F82B0002301934FF0A00383F31188BFF36F8FBFF34F8F019B002BFCD002B0704706480068006880F3088862B661B6BFF31D
:401A00004F8FBFF36F8F00DF00BF000008ED00E04FF0807340F8043C21F0010140F8081C034B40F80C3C40F8202C4038704700BFD119000000000000000000000000000062
:401A4000074B19680868B0E8F00F80F30988BFF36F8F4FF0000080F311884EF00D0E7047C894FF1F4FF0A00383F31188BFF36F8FBFF34F8F024A136801331360704700BFEE
:401A8000D880FF1F034A1368013B13600BB983F311887047D880FF1F0000000000000000EFF30980BFF36F8F0D4B1A6820E9F00F10602DE908404FF0A00080F31188FFF78D
:401AC00029FD4FF0000080F31188BDE8084019680868B0E8F00F80F30988BFF36F8F7047C894FF1F08B54FF0A00383F31188BFF36F8FBFF34F8FFFF7CDFB18B14FF0805295
:401B0000024B1A60002383F3118808BD04ED00E0054B00221A6005490A6045F6BF51044A116007221A60704710E000E018E000E014E000E010B50B4B1A6842F460021A60E3
:401B40001A6842F060421A60FFF7E2FF0024064B1C60FFF74DFFFFF7DDFCFFF739FF204610BD00BF20ED00E0D880FF1F094A22F00702094BC3F840280020C3F8440848F6EF
:401B8000F871C3F84C18C3F84808516003F64803136070470095FF1FB81C002070B50446FFF768FB264BD3F850382BB9FFF7DEFF0122234BC3F8502834B1083414F0070F8A
:401BC00002D024F007040834621E48F6F6739A422BD81B49D1F8403801F5046101E0194613465A68944202D91A68002AF7D1154A93421CD00D6808351A680A605A68121B85
:401C0000102A0CD91E1972605C6074680E4900E011460A6850688442FAD832600E6059680A4A13685B1A136002E0002500E00025FFF7B4FB0DB9FEF799FA284670BD00BFC3
:401C4000B81C002000250020F8240020DC80FF1FD0B170B50546A0F10806FFF70BFB55F8044C0A4A00E01A46136859688C42FAD845F8083C166055F8043C054A11680B4441
:401C80001360FFF78BFB70BD704700BFF8240020DC80FF1F08B500F011F86420FFF720FCFBE700BF00B583B000920B46024600210846FEF7ADFB03B05DF804FB00B587B0DD
:401CC000FEF7E2FBFEF786FCFEF7CAFB00210846FEF7D8F942F6F82001900090034602460146FEF72FFCFEF78BFC00213220FEF7C9F903A8FEF7CEFB03A8FEF7CBFB06E0E8
:401D000000216420FEF7BEF903A8FEF7C3FBBDF80C30012B31D1BDF80E30012B2DD1BDF81430012B29D1BDF81630012BE8D024E000212820FEF7A6F903A8FEF7ABFBBDF8BE
:401D40001430012B0AD1164801F0BEFE002211465020FFF7A7FF03A8FEF79CFBBDF80E30012B0AD10F4801F0AFFE002278211046FFF798FF03A8FEF78DFBBDF80C301BB9D7
:401D8000BDF81630002BD3D0074801F09DFE00210846FEF777F9FEF769FB07B05DF804FBB0800000C0800000D0800000FEE700BFF0B40022174611E050F82760F3B226F045
:401DC000FF0608E001EB420511F812406D78A5550132013BDBB2002BF4D10137282FEBD9F0BC704708B50A46002101F01BFE08BDF8B5174B1B78DBB2164E3478E4B2164FB0
:401E00003D78EDB203F00701144A11701B090132137044F00303337045F003033B7020220F4B1A7040230F490B7002310B70022301F21D210B7003310A700B4A13700A204C
:401E400000F07EFB3D7034704422084B1A70F8BDCF010049F8460040F94600406E5800402D51004009590040585B00407658004008B501F0FDFC08BD38B5484C2578EDB20A
:401E80001722474B1A80182346490B7002310A80454A1370192204310A8002310B7002310A80424A137077210232118002321370EF21023211800232137004223C493D4865
:401EC000FFF7D6FF02223C4B1A7008224FF040231A70F32203F20A331A70032323708422364B1A700522013B1A70354C04E04FF4F07000F031FB013C24B1324B1B7813F01B
:401F0000200FF4D0254B1D700322A3F593631A702D4B1B78DBB22D4A137008222C4B1A8041F25122023B1A80002419250CE0294B1B7803F0010343EA440404F003044FF42B
:401F4000F07000F009FB013D0DB1032CEFD115B90320FFF72BFF204B4FF480721A8007221A7000221D490A704820023108701A700222033B1A7004220A331A70184A1378BF
:401F800043F03F031370013A137843F001031370013A137843F08003137038BD984600408040004082400040864000408E4000401C1200480041004000430040094300407B
:401FC000A08601000843004008010049A146004022420040254200400440004006400040A243004038B572B63B4A137843F00403137000240CE0394D630019194A0011468E
:402000002A44084691882858FFF7ECFE0134E4B2082CF0D900240CE03048A20011194B000344B3F84020D96B986BFFF721FF0134E4B2032CF0D92A494FF09040FFF7B8FE64
:40204000284A137843F0020313701032137843F002031370244C237843F040032370A2F58632513A137843F01003137008221F491F48FFF7FDFE0A221E491F48FFF7F8FE0E
:4020800008221E491E48FFF7F3FE0A221D491E48FFF7EEFE0A221D491D48FFF7E9FE08221C491D48FFF7E4FE1C4A137843F0080313701B4D61232B70FFF7DEFE81232B707E
:4020C0000122184B1A70FFF793FE0E2221461648FFF7CEFE38BD00BFE8460040DC800000A400004803500140A0430040E011004802510040E8110048C0510040F4110048C6
:40210000F2510040FC1100481051004008120048205100401412004832510040224300400048004004000840B043004008B500F075FE03680C2B00D1FEE7FEE708B5094BC8
:402140001A681044084BC31AB3F5005F02DC054B186005E000F062FE0C2303604FF0FF32104608BDE080FF1F5025002008B5104E104D16E029686B68AC68002204E051F812
:40218000040B43F8040B0432A242F8D1E868002203E0002143F8041B04328242F9D11035013E002EE6D101F049F8FDF799FFFEE701000000E482000008B5104A104B1A60F0
:4021C000104A136843F40073136000230AE0032B03D80D4A52F8231000E00C490C4A42F8231001332F2BF2D90A4B1A780A4B1A70074A0A4B1A60FFF7F5FE08BD0004FA051B
:402200000CED00E014ED00E0000000002D2100000080FF1FBC760040C080FF1F08ED00E07222074B1A70202203331A700622623B1A70472210331A700022AC3B1A70704712
:402240008465004010B500F08FF904460A4A137843F0200313700332137843F010031370FE3A137843F01003137000F04DF9204600F07EF910BD00BF9465004008B5054B0C
:402280001B7823B9FFF7CCFF0122024B1A70FFF7D9FF08BD0C250020014B1878704700BF44650040024B187800F07F00704700BF67650040014B1870704700BF8964004090
:4022C000014B1878704700BF69640040034B1B7813F0040FFAD1024B1870704769640040476500407222084B1A702022013B1A700622A3F5B4731A70472210331A700022F6
:4023000052331A70704700BF8A65004010B500F02BF904460A4A137843F020031370013A137843F010031370A2F58372137843F01003137000F0F6F8204600F019F910BD8C
:402340009A65004008B5054B1B7823B9FFF7CAFF0122024B1A70FFF7D9FF08BD0E250020024A137843F080031370704770640040014B1870704700BF85640040014B1878D9
:40238000704700BF65640040014B1860704700BF02640040024B1B78024B1868704700BF0264004042640040014B1868704700BF42640040014B1860704700BF22640040E7
:4023C000014B1860704700BF3264004008B501E0FFF7EAFFFFF7D2FF10F0400FF8D108BD08B5124B1A7802F0F8021A701A7802F0FC021A70FFF7EAFF6FF00100FFF7DAFF70
:402400000020FFF7C1FF0020FFF7B2FFFFF7B6FF0020FFF7D5FF00F0A7F8054A137843F01003137000F0A4F808BD00BF706400409564004008B5054B1B7823B9FFF7D0FF9A
:402440000122024B1A70FFF78BFF08BD10250020014B1B681865704708ED00E04001C0B2014B1870704700BF04E400E01022014B1A60704700E100E01022014B1A6070470C
:4024800080E100E010B50446FFF7F6FF2046FFF7DFFF0720FFF7E2FFFFF7E8FF10BD00BF1022014B1A60704780E200E0014B1B68D864704708ED00E04001C0B2014B187031
:4024C000704700BF03E400E00822014B1A60704700E100E00822014B1A60704780E100E010B50446FFF7F6FF2046FFF7DFFF0720FFF7E2FFFFF7E8FF10BD00BF0822014B3E
:402500001A60704780E200E0054A137843F0040313701032137843F004031370704700BFA2430040054A137843F0080313701032137843F008031370704700BFA2430040A8
:4025400008B5034B1B7A00FB03F000F005F808BDE480FF1F000000000230800803D000BF01380046FCD17047EFF3108072B6704780F31088704700BF81F0004102E000BF25
:4025800083F0004330B54FEA41044FEA430594EA050F08BF90EA020F1FBF54EA000C55EA020C7FEA645C7FEA655C00F0E2804FEA5454D4EB5555B8BF6D420CDD2C4480EA50
:4025C000020281EA030382EA000083EA010180EA020281EA0303362D88BF30BD11F0004F4FEA01314FF4801C4CEA113102D0404261EB410113F0004F4FEA03334CEA1333E4
:4026000002D0524263EB430394EA050F00F0A780A4F10104D5F1200E0DDB02FA0EFC22FA05F2801841F1000103FA0EF2801843FA05F359410EE0A5F120050EF1200E012A38
:4026400003FA0EFC28BF4CF0020C43FA05F3C01851EBE37101F0004507D54FF0000EDCF1000C7EEB00006EEB0101B1F5801F1BD3B1F5001F0CD349085FEA30004FEA3C0C67
:4026800004F101044FEA445212F5800F80F09A80BCF1004F08BF5FEA500C50F1000041EB045141EA050130BD5FEA4C0C404141EB010111F4801FA4F10104E9D191F0000F11
:4026C00004BF01460020B1FA81F308BF2033A3F10B03B3F120020CDA0C3208DD02F1140CC2F10C0201FA0CF021FA02F10CE002F11402D8BFC2F1200C01FA02F120FA0CFCB2
:40270000DCBF41EA0C019040E41AA2BF01EB0451294330BD6FEA04041F3C1CDA0C340EDC04F11404C4F1200220FA04F001FA02F340EA030021FA04F345EA030130BDC4F12B
:402740000C04C4F1200220FA02F001FA04F340EA0300294630BD21FA04F0294630BD94F0000F83F4801306BF81F480110134013D4EE77FEA645C18BF7FEA655C29D094EACF
:40278000050F08BF90EA020F05D054EA000C04BF1946104630BD91EA030F1EBF0021002030BD5FEA545C05D14000494128BF41F0004130BD14F580043CBF01F5801130BDBC
:4027C00001F0004545F0FE4141F470014FF0000030BD7FEA645C1ABF194610467FEA655C1CBF0B46024650EA013406BF52EA033591EA030F41F4002130BD00BF90F0000F42
:4028000004BF0021704730B54FF4806404F132044FF000054FF0000150E700BF90F0000F04BF0021704730B54FF4806404F1320410F0004548BF40424FF000013EE700BFF9
:4028400042004FEAE2014FEA31014FEA02701FBF12F07F4393F07F4F81F06051704792F0000F14BF93F07F4F704730B54FF4607401F0004521F0004120E700BF50EA010225
:4028800008BF704730B54FF000050AE050EA010208BF704730B511F0004502D5404261EB41014FF4806404F132045FEA915C3FF4DCAE4FF003025FEADC0C18BF03325FEAAB
:4028C000DC0C18BF033202EBDC02C2F1200300FA03FC20FA02F001FA03FE40EA0E0021FA02F11444C1E600BF70B54FF0FF0C4CF4E06C1CEA11541DBF1CEA135594EA0C0FF5
:4029000095EA0C0F00F0DEF82C4481EA030621EA4C5123EA4C5350EA013518BF52EA033541F4801143F4801338D0A0FB02CE4FF00005E1FB02E506F00042E0FB03E54FF000
:402940000006E1FB03569CF0000F18BF4EF0010EA4F1FF04B6F5007F64F5407404D25FEA4E0E6D4146EB060642EAC62141EA55514FEAC52040EA5E504FEACE2EB4F1FD0C6B
:4029800088BFBCF5E06F1ED8BEF1004F08BF5FEA500E50F1000041EB045170BD06F0004646EA010140EA020081EA0301B4EB5C04C2BFD4EB0C0541EA045170BD41F48011B3
:4029C0004FF0000E013C00F3AB8014F1360FDEBF002001F0004170BDC4F10004203C35DA0C341BDC04F11404C4F1200500FA05F320FA04F001FA05F240EA020001F0004236
:402A000021F0004110EBD37021FA04F642EB06015EEA430E08BF20EAD37070BDC4F10C04C4F1200500FA04F320FA05F001FA04F240EA020001F0004110EBD37041F1000184
:402A40005EEA430E08BF20EAD37070BDC4F1200500FA05F24EEA020E20FA04F301FA05F243EA020321FA04F001F0004121FA04F220EA020000EBD3705EEA430E08BF20EA3E
:402A8000D37070BD94F0000F0FD101F00046400041EB010111F4801F08BF013CF7D041EA060195F0000F18BF704703F00046520043EB030313F4801F08BF013DF7D043EA6D
:402AC0000603704794EA0C0F0CEA135518BF95EA0C0F0CD050EA410618BF52EA4306D1D181EA030101F000414FF0000070BD50EA410606BF1046194652EA430619D094EA5F
:402B00000C0F02D150EA013613D195EA0C0F05D152EA03361CBF104619460AD181EA030101F0004141F0FE4141F470014FF0000070BD41F0FE4141F4780170BD70B54FF030
:402B4000FF0C4CF4E06C1CEA11541DBF1CEA135594EA0C0F95EA0C0F00F0A7F8A4EB050481EA030E52EA03354FEA013100F088804FEA03334FF0805545EA131343EA1263E2
:402B80004FEA022245EA111545EA10654FEA00260EF000419D4208BF964244F1FD0404F5407402D25B084FEA3202B61A65EB03055B084FEA32024FF480104FF4002CB6EB41
:402BC000020E75EB030E22BFB61A754640EA0C005B084FEA3202B6EB020E75EB030E22BFB61A754640EA5C005B084FEA3202B6EB020E75EB030E22BFB61A754640EA9C00AA
:402C00005B084FEA3202B6EB020E75EB030E22BFB61A754640EADC0055EA060E18D04FEA051545EA16754FEA06164FEAC30343EA52734FEAC2025FEA1C1CC0D111F4801FEF
:402C40000BD141EA00014FF000004FF0004CB6E711F4801F04BF01430020B4F1FD0C88BFBCF5E06F3FF6AFAEB5EB030C04BFB6EB020C5FEA500C50F1000041EB045170BDDE
:402C80000EF0004E4EEA113114EB5C04C2BFD4EB0C0541EA045170BD41F480114FF0000E013C90E645EA060E8DE60CEA135594EA0C0F08BF95EA0C0F3FF43BAF94EA0C0F67
:402CC0000AD150EA01347FF434AF95EA0C0F7FF425AF104619462CE795EA0C0F06D152EA03353FF4FDAE1046194622E750EA410618BF52EA43067FF4C5AE50EA41047FF455
:402D00000DAF52EA43057FF4EBAE12E74FF0FF3C06E000BF4FF0010C02E000BF4FF0010C4DF804CD4FEA410C7FEA6C5C4FEA430C18BF7FEA6C5C1BD001B050EA410C0CBFAB
:402D400052EA430C91EA030F02BF90EA020F0020704710F1000F91EA030F58BF994208BF90422CBFD8176FEAE37040F0010070474FEA410C7FEA6C5C02D150EA013C07D1A9
:402D80004FEA430C7FEA6C5CD6D152EA033CD3D05DF8040B704700BF8446104662468C461946634600E000BF01B5FFF7B7FF002848BF10F1000F01BD4DF808EDFFF7F4FFF8
:402DC0000CBF012000205DF808FB00BF4DF808EDFFF7EAFF34BF012000205DF808FB00BF4DF808EDFFF7E0FF94BF012000205DF808FB00BF4DF808EDFFF7CEFF94BF012021
:402E000000205DF808FB00BF4DF808EDFFF7C4FF34BF012000205DF808FB00BF014B1868704700BF2085FF1F084B70B51C6805460E4624B1A36B13B9204603F0EBFE324614
:402E400029462046BDE8704000F052BE2085FF1F30B5054687B008461446019101F0F4F801AA012305900290039204930DB1AB6B8BB1B4F90C309A0406D4626E43F40053FA
:402E800022F40052A38162662146284603AA00F00FF807B030BD284603F0BCFEE9E700BF024B0A4601461868FFF7D2BF2085FF1F9368002B00F0AB802DE9F04F8B8985B06A
:402EC0000C4619070290164628D5226932B303F002081FFA88F0356878B34FF00009C846DFF8D0A2B8F1000F00F08B80D04543464A4628BF5346E1690298676AB8470028D3
:402F000040F3A580B36881441B1AC0EB0808B360002BE7D1002005B0BDE8F08F2146029802F010FD002840F03C81A389356803F002081FFA88F00028CFD113F0010940F009
:402F400090804F460196002F56D09A05D4F808805FD54745C246C0F0BF8013F4906F00F0BD8062692068216902EB4208C1EB000A08EBD8780AF101004FEA68083844404530
:402F8000424684BF804642465B0540F1F2801146029800F07BF98346002800F005815246216900F065FCA38923F4906343F08003A381CAEB08030BEB0A00C4F81480BA46A6
:402FC000B846C4F810B02060A3605246494600F0C5FCA0682368C8EB0000A060384653442360019A814493683F1A1B1A9360002B90D0A389002FA8D1D5F800906F68083572
:40300000A1E7D5F80090D5F8048008356AE70020704720682369984203D86269974280F08380B84528BFB8464946424600F096FCA3682268C8EB03034244A3602260002B16
:4030400048D12146029803F051FD002842D0B4F90C3043F040034FF0FF30A38105B0BDE8F08F8046824681460190B9F1000F29D0019B002B4BD0C845C34628BFCB462068E1
:4030800023695F469842626903D9A36813449B455CDC934524DB1346676A5246E1690298B847071ED3DDB8EB070827D0B368BA44DB1BC7EB0909B360002B3FF42BAFB9F122
:4030C000000FD5D10023D5F800A0D5F8049001930835CAE7404684E7B846BA46206874E75A46514600F03AFCA2682368CBEB02025B44B8EB0708A2602360D7D121460298AB
:4031000003F0F4FC0028A2D1CDF80480CEE74A460A21504600F066FB00283DD001300123CAEB00080193A6E76FF00043BB4228BF3B4693FBF2F3E16902FB03F302984A4628
:40314000666AB04700283FF74CAF80E71A465146039300F003FC2268039B21461A442260029803F0C3FC039B00287FF470AF1F4699E7029800F01AFD834600287FF419AF87
:40318000029D2169284603F0B1FDB4F90C300C2223F080032A605CE7012309F10108019369E74FF0FF30B6E6029A0C231360B4F90C304EE700FCFF7F2DE9F04102FB03F437
:4031C00086B090461E4601AA0123019102940594039204930C9D074608B1836BDBB1B5F90C309A0406D46A6E43F4005322F40052AB816A662946384603AAFFF759FE30B18A
:403200000598241AB4FBF8F006B0BDE8F081304606B0BDE8F08103F0FDFCE0E710B5064C82B00093246813460A4601462046FFF7C3FF02B010BD00BF2085FF1F70B50F4E62
:403240000F4D761BB61018BF002405D0013455F8043B9847A642F9D10A4E0B4D05F02EF8761BB61018BF002406D0013455F8043B9847A642F9D170BD70BD00BFC8820000D1
:40328000C8820000D4820000C88200002DE9F04F01F10B05162D83B0064640F2A08035F0070500F1C080A94200F2BD8000F008FCB5F5FC7FC0F090826B0A00F0BB80042B93
:4032C00000F27781A80900F1390E4FEA4E013830BE4F07EB81014C680839A14207D1AEE0002A80F2AE80E468A14200F0A880636823F003035A1B0F2AF2DDB4493C6901F146
:40330000080E744500F0A881636823F003035A1B0F2A00F38E81002AC1F814E0C1F810E080F29380B3F5007F80F05C81DB084A684FEAA3094FF0010C013351F833800CFA9C
:4033400009F901EBC30C49EA0202ACF1080CC4F80CC0C4F808804A6041F83340C8F80C40831001249C4094427CD8144206D120F003006400144200F10400FAD007EBC00948
:40338000CC468046DCF80C108C4507D166E1002A80F27481C9688C4500F060814B6823F003035A1B0F2AF2DD0C46CB6854F808CF45F00108C1F804800D4442F00101CCF83C
:4033C0000C303046C3F808C07D613D61C5F80CE0C5F808E06960AA5000F074FB1FE0102921D800F06DFB102506230220774F07EB83035C68A3F10802944200F038816368B9
:40340000E16823F0030323445A68A56842F00102E96030468D605A6000F054FB0834204603B0BDE8F08F002420460C23336003B0BDE8F08F80214FF0400E3F2048E770460C
:403440005BE723445A68E168DFE723445A68304642F001025A60083400F034FB204603B0BDE8F08FBC68636823F00308A84504D3C5EB08030F2B00F38C80554BDFF860917F
:403480001A68D9F800302A44013304EB080A00F0608102F580520F3222F47F6222F00F0211463046019200F0BDFDB0F1FF3F8346019A00F05881824500F2FC80454BDA45F7
:4034C00019681144196000F05381D9F80000DFF810E101301BBFCAEB0B0A5144CEF800B019601BF0070100F01781C1F10800C1F58051834408315A44C2F30B02C2EB0109D4
:4035000049463046019300F08DFD431C019B00F03F81CBEB00024A4442F001021968BC424944C7F808B01960CBF80420DFF8A49016D0B8F10F0F40F2FD806268A8F10C0396
:4035400023F0070302F00102E0184FF0050E1A430F2B6260C0F804E0C0F808E000F21C811D4BBC681A68914288BF19601B4B1A689142626888BF196022F003029542A2EB6A
:40358000050301D80F2B04DC304600F09BFA002445E745F0010243F00103254462603046BD6008346B6000F08DFA204603B0BDE8F08F142B71D9542B00F2A480280B00F19B
:4035C0006F0E4FEA4E016E3082E600BF2485FF1F1C2500202025002018250020142500203089FF1F5A0A042A5ED9142A00F2B38002F15C0149005B3207EB810C57F8211096
:40360000ACF1080C8C45DFF8D88100F088804A6822F00302934202D289688C45F7D1D1F80CC07A68C4F80CC0A160CCF80840CC6096E645F0010742F0010325446760304617
:403640004D610D61C5F80CE0C5F808E06B60AA50083400F037FAE2E64A6881E608F1010818F0030F0CF1080C7FF48CAE30E0DC68A34208BF02303FF440AEC0E60C460B4469
:403680005A68C96854F8085F42F001025A603046E9608D6000F016FAC1E603F15C0E03F15B004FEA4E0113E69A0902F1390149003832A1E7BC424A4B3FF400AF9C686268A6
:4036C00022F003025AE759F80839994540F0828010F0030F00F1FF30F5D17B6823EA04037B6064009C423FF6BDAE002C3FF4BAAE1C4240467FF442AE64001C4200F104005F
:40370000FAD03BE6B3F5AA7F18D8E80B00F1780E4FEA4E017730DBE54FF48051EBE60121D8F80430921001FA02F21A43C8F80420614677E70123CBF8043025E740F25452A3
:40374000934220D8A80C00F17D0E4FEA4E017C30BEE51032A4E6542A26D81A0B02F16F0149006E3248E7BC68626822F0030205E7CAF30B0000287FF4A8AE4244BB6842F008
:4037800001025A60ECE6FE214FF07F0E7E209FE501224FF00009C1E604F10801304603F0A5FAD9F80010DBE6B2F5AA7F05D8DA0B02F17801490077321EE740F254518A421B
:4037C00005D89A0C02F17D0149007C3214E7FE217E2211E77B6884E7E808431C5B0005E62485FF1F830770B4CDB23DD0531E02B30278AA421ED0421C04E0D3B10478013B50
:40380000AC4217D012F0030F104602F10102F4D1032B11D853B30278AA420BD00344421C02E00178A94205D09342104602F10102F7D1002070BC704704460E0206F47F466B
:403840002E4346EA0646226820467240A2F1013121EA020212F0803F04F10404DBD1043B032B2046EFD8D5E71346D1E71846E1E7844641EA000313F0030349D1403A23D363
:403880000B6803604B6843608B688360CB68C3600B6903614B6943618B698361CB69C3610B6A03624B6A43628B6A8362CB6AC3620B6B03634B6B43638B6B8363CB6BC36378
:4038C00040304031403ADBD230320BD30B6803604B6843608B688360CB68C36010301031103AF3D20C3205D351F8043B40F8043B043AF9D2043208D0D2071CBF11F8013B73
:4039000000F8013B01D30B8803806046704700BF082A13D38B07B1D010F00303AED0C3F10403D21ADB071CBF11F8013B00F8013BA4D331F8023B20F8023B9FE7043AD9D31F
:40394000013A11F8013B00F8013BF9D20B7803704B7843708B788370604670478842F0B50DD98B1898420AD28118002A51D09A1A13F8014D934201F8014DF9D1F0BD0F2A9E
:4039800048D941EA00039B0746D1154600F1100401F1100353F8106C103D44F8106C53F80C6C0F2D44F80C6C53F8086C04F1100444F8186C53F8046C03F1100344F8146C15
:4039C000E8D8A2F1100323F00F0302F00F0E1033BEF1030F1944034421D90E4674461D1F56F8047B043C032C45F8047FF8D8AEF1040424F0030404342344214402F00302B8
:403A000062B1013B0A4411F8014B8A4203F8014FF9D1F0BD0346F3E70346F2E7F0BD7246EEE700BF70B4840746D0541E002A41D0CDB2034602E0621EE4B3144603F8015BE4
:403A40009A07F8D1032C2ED9CDB245EA05250F2C45EA054519D9264603F11002103E0F2E42F8105C42F80C5C42F8085C42F8045C02F11002F2D8A4F1100222F00F0204F01E
:403A80000F041032032C13440DD91E462246043A032A46F8045BFAD8221F22F003020432134404F003042CB1C9B21C4403F8011BA342FBD170BC704714460346C2E700BF51
:403AC000704700BF704700BF0FB410B5074B82B004AC54F8042B186823468168019400F0E1FA02B0BDE8104004B070472085FF1F70B50D461446064618B1836B0BB903F010
:403B000089F8A368013B002BA36005DBE8B223685A1C22601D7070BDA269934202DBE8B20A28F4D1224629463046BDE8704001F0B3BE00BFF0B5054689B008460C4600F00E
:403B400083FA431C144F0393AB6B012604A9022204940590AC680697079601910292B3B1B4F90C309A0406D4626E43F4005322F40052A38162662146284601AAFFF798F947
:403B8000002814BF4FF0FF300A2009B0F0BD284603F040F8E4E700BF88800000024B01461868FFF7C7BF00BF2085FF1F2DE9F04F174683B0002900F08F800D46814607F1B0
:403BC0000B04FFF77DFF55F804EC162C2EF00306A5F108083CD810221446A7423DD8964242DAC64B08EB060099688842416800F0D78021F0010303445B68DB074CD51EF071
:403C0000010F00F09D8039464846FFF73FFB074600283AD055F8043CA0F1080223F0010343449A4200F03E81321F242A00F22B81132A00F2FF8003462A461168196051680B
:403C4000596092689A602946484603F04FF81CE024F00704002C2246BFDA0C230020C9F8003003B0BDE8F08F2F46331B0F2BD8F804201DD802F00102324308EB0601C8F8F7
:403C800004204B6843F001034B604846FFF71AFF384603B0BDE8F08F21F003013144914220DBC36882682F46D3600E469A60DCE702F0010208EB0401144343F00102C8F8F9
:403CC00004400B444A605A68083142F001025A60484603F00BF8D8E7114603B0BDE8F04FFFF7D4BA1EF0010F8DD155F8083CC3EB080ADAF8043023F0030C01EB0C0E964512
:403D000026DB5746C3688168321FCB60996057F8081FDAF80C30242ACB60996000F2C980132A40F292802B681B2ACAF808306B68CAF80C3000F2CD8008350AF1100385E018
:403D400055F8083CC3EB080ADAF8043023F0030C06EB0C039342FFF656AF5746DAF80C1057F8080F321F242AC160886000F2AA80132A40F2A58029681B2ACAF80810696831
:403D8000CAF80C1000F2BC8008350AF1100229681E4611606968D0465160AB68936064E721F0030B04F11000B344834557DA1EF0010F7FF428AF55F8081CC1EB080ADAF8E1
:403DC000041021F0030CE3445845C1DC5746DAF80C1057F8080F321F242AC160886000F2B180132A40F2A28029681B2ACAF808106968CAF80C1000F2AC8008350AF110021A
:403E00002968116069685160A9689160C4EB0B020AEB040142F0010299604A60DAF80430484603F001031C43CAF80440FFF74AFE38462EE72B681B2A03606B68436026D8FE
:403E400000F1080305F10802F7E63B462A6876461A606A68D0465A60AA689A6005E7C4EB0B0B08EB04014BF0010299604A6055F8043C484603F001031C4345F8044CFFF7F4
:403E800021FE284605E72946FFF768FDDBE6AB68242A8360EB68C36027D000F1100305F11002CAE650F8043C2F4623F003031E44DBE6294638467646D046FFF74FFDD4E69D
:403EC0003A4664E7294638461E46D046FFF746FDCBE6AB68242ACAF81030EB68CAF814301AD010350AF11803B0E72A6900F118030261696905F1180241619EE62485FF1F3D
:403F0000A968242ACAF81010E968CAF814100FD010350AF118023AE72A690AF12003CAF818206A691835CAF81C208FE73A4667E729690AF12002CAF8181069691835CAF828
:403F40001C1024E7294638460193FFF707FD019B5CE7A968242ACAF81010E968CAF8141003D010350AF118024AE729690AF12002CAF8181069691835CAF81C1040E700BF4E
:403F800038B50C460968054609B1FFF7F9FF21462846BDE8384002F0A9BE00BF204B1B6883423CD0C36C70B505468BB10026995939B10C68284602F099FE2146002CF8D1F1
:403FC000EB6C0436802EF2D11946284602F08EFE296C11B1284602F089FED5F8481151B105F5A676B14206D00C68284602F07EFEA6422146F8D1696D11B1284602F076FE5B
:40400000AB6B03B970BDEB6B28469847D5F8E0120029F7D02846BDE87040FFF7B1BF70472085FF1F38B5074C0023054608462360FEF784F8431C00D038BD2368002BFBD0F7
:404040002B6038BD4825002020F0030110F00300C0F1000051F8043B00F1040C4FEACC0C6FF000021CBF22FA0CF213434FF0010C4CEA0C2C4CEA0C4CA3EB0C0222EA030230
:4040800012EACC1204BF51F8043B0430F4D0C2F1000102EA0102B2FA82F2C2F11F0200EBD20070472DE9F04FC1B01C460891164605460A9002F034FF03680E94184617939C
:4040C000FFF7C2FF16901DB1AB6B002B00F0BD830898B0F90C2093B2990407D4416E42F4005321F40051838141669BB21A0740F1E482089A1269002A00F0DF8203F01A03FC
:404100000A2B00F0E88200231A46B0460DF1C00ADFF85C94129319930B9325932493CDF88CA01492159298F800304446EBB1252B02D11AE0252B03D014F8013F002BF9D1E5
:40414000C8EB04058DB1249B259A01332A44072BCAF80080CAF804502592249300F330830AF1080A0B9B2B440B932378002B00F0EA814FF0FF3B5D4600231A468DF86F30E3
:4041800019460C930793637804F1010808F10108A3F12000582800F24086DFE810F0DC053E063E06E5053E063E063E063E063E063E065900AA053E066600AA033E06C60382
:4041C000CD03CD03CD03CD03CD03CD03CD03CD03CD033E063E063E063E063E063E063E063E063E063E06DD0357053E0657053E063E063E063E06A2053E063E06BC043E06A8
:404200003E063E063E063E06E4043E063E0611053E063E063E063E063E063E063E063E063E063E0644058D0457055705570595048D043E063E069D043E06A8044A046D0054
:40424000B0053E06B8053E0621043E063E06ED050E9C236818460C932346002803F104030E9306DA0C9B5B420C93079B43F00403079398F8003089E7AB460E9A002707987E
:4042800030217823BB4514688DF8701002F104024FF000058DF871308DF86F7040F00201C0F2D18520F0800141F00201079154EA05010E921193AC4800F0318130AE23090A
:4042C00043EA0573290904F00F020D461C46835C06F8013D54EA0503F1D130AB9B1B0D930D9B5B45B8BF5B4609930023139317B1099B01330993079B13F002030F9302D0BA
:40430000099B02330993079B13F08403109340F018810C9B099A9D1A002D40F31281102D2599249A914F27DD189650461024BA46089E2F460A9D04E0103F102F00F108003A
:4043400016DD0132894B1031072A2591249280E81800F1DD23AA3146284603F0EFF9002840F0F880103F102F30A82599249AE8DC3D4657468246189E01326C18072A2594D5
:404380002492CAF80070CAF8045000F3D0809DF86F700AF1080A77B1249B013401330DF16F010122072B259424938AE8060000F31E820AF1080A0F9B6BB1249B02340133B1
:4043C0001CA90222072B259424938AE8060000F31A820AF1080A109B802B00F02A810D9BC3EB0B07002F33DD614A102F249B0F9222DD22464FF0100B0A9D089C04E0103FFD
:40440000102F0AF1080A16DD01331032072B259224938AE8000AF2DD23AA2146284603F08DF9002840F09680103F102F0DF1C00A259A249BE8DC144601330F9A3C44072BD2
:40444000259424938AE8840000F3C5810AF1080A079BDD0500F18E80249B0D9901330C44072B2594CAF80060CAF80410249300F3E0810AF1080A079B580736D50C9B099AD3
:404480009D1A002D31DD102D249B384F22DD22461026DDF828B0089C04E0103D102D0AF1080A16DD013331491032072B259224938AE84200F1DD23AA2146584603F03EF91D
:4044C000002847D1103D102D0DF1C00A259A249BE8DC144601332C44072B25942493CAF80070CAF8045000F38D840B9B0C9A09998A42ACBF9B185B180B93002C40F05781DF
:40450000002324930DF1C00A0DE60027BB458DF86F70C0F2A284079B23F080030793BBF1000F00F06784002400250027C6E623AA08990A9803F002F960B99DF86F700DF176
:40454000C00A259C27E7259B23B10A9823AA089903F0F4F8089B9B89590600F10E870B9841B0BDE8F08F00BF748100004081000094810000119B652B40F3BB80149815992D
:4045800000220023FEF718FC002800F06781249BB049013301340122072B259424938AE8060000F38B860AF1080A1D9B129A934203DB079BD8077FF55EAF249B1699013383
:4045C000179A0C44072B2594CAF80020CAF80410249300F32B870AF1080A129B5D1E002D7FF749AF9C4A102D249B0F9240F3178110260A9FDDF820B005E00AF1080A103DDA
:40460000102D40F30C8101331034072B25942493CAF80090CAF80460EFDD23AA5946384603F08CF8002895D10DF1C00A259C249BE5E70C9B099A9F1A002F7FF7D0AE864A26
:40464000102F249B0F922BDD52462146BA46102537460A9C089E06E0AAF1100ABAF1100F02F1080218DD01331031072B25912493C2F800905560EFDD23AA3146204603F0C3
:404680005DF800287FF466AFAAF1100ABAF1100F30AA2599249BE6DC3E460C465746924601330F9A3C44072B259424938AE8840000F3D6840AF1080A91E608990A9801F018
:4046C00041F9002840F05986089B9B8903F01A030A2B7FF418AD0899B1F90E30002BFFF612AD234632460A9801F0A0F841B0BDE8F08F129B249D012B04F1010405F10105EC
:4047000040F35D840123072D2594CAF800602495CAF8043000F36E840AF1080A169A0135179B1444072D25942495CAF80030CAF8042000F36D840AF1080A002314981599B5
:404740000022FEF739FB129B002800F02A835E1E002E40F33583404B102E0F9340F36984CDF834801027B046DDF828B0089E07E00AF1080AA8F11008B8F1100F40F35684E9
:4047800001351034072D25942495CAF80090CAF80470EDDD23AA3146584602F0CFFF00287FF4D8AE0DF1C00A259C249DE2E723AA08990A9802F0C2FF00283FF4A1AEC9E695
:4047C00023AA08990A9802F0B9FF00287FF4C2AE0DF1C00AC6E423AA08990A9802F0AEFF00287FF4B7AE0DF1C00A259C30E623AA08990A9802F0A2FF00287FF4ABAE0DF19F
:40480000C00A259CD7E523AA08990A9802F096FF00287FF49FAE0DF1C00A259CDBE501330F9A2C44072B259424938AE824007FF720AE23AA08990A9802F080FF00287FF484
:4048400089AE259C0DF1C00A15E60A9802F0E2F93EE400BF90810000948100001D9D002D40F33B85139B129A9342A8BF1346002B1D460DDD249B2C440133072B2594CAF8B6
:404880000060CAF80450249300F30E860AF1080A139B002DA8BF5B1B002B1D4640F32D83C64A102D249B0F9240F3FB8422461027DDF828B0089C05E00AF1080A103D102D43
:4048C00040F3EE8401331032072B25922493CAF80090CAF80470EFDD23AA2146584602F02DFF00287FF436AE0DF1C00A259A249BE4E798F8003008F101042A2B00F045875A
:40490000A3F13000092898BF002500F2D78614F8013B05EB850500EB4505A3F130000928F5D945EAE575A04632E4079B43F08003079398F8003029E4A3F1300000231C4670
:4049400018F8013B04EB840400EB4404A3F130000928F5D90C941BE41193AB46002A40F03B87079B43F010030793079B9F0640F18A820E9C073424F00704D4E9002304F14F
:4049800008011D4614460E91002A73F10003C0F27483BBF1000F9DF86F70C0F29482079B23F08003079354EA050338D0002D08BF0A2C39D330AE204629460A22002303F016
:4049C000D7F8303206F8012D2046294600230A2203F0CEF804460D4654EA0503EBD17CE41193AB46002A40F0F386079A12F0200300F0C7800E9C0027073424F0070303F1FB
:404A00000801BB450E91D3E900458DF86F70C0F25A8222F08003079354EA0503C6D1BBF1000F00F0E881002440AE303406F8414D53E41193AB46002A40F0C686079A12F0A4
:404A4000200375D00E9C0027073424F0070303F10801BB450E91D3E900458DF86F700BDB22F08003079354EA050306D1BBF1000F00F0048600240025002730AEE20842EAD8
:404A80004572E90804F007030D461446303354EA050206F8013DF1D1079AD2077FF51DAC302B3FF41AAC3022731E06F8012C30AAD21A0D921E4613E41193AB46002A3FF432
:404AC00054AF8DF86F1050E7079B43F04003079398F80030FFF75ABB98F800306C2B00F09B84079840F010000790FFF74FBB002A40F08686079B9F0640F10E830E9A1346AF
:404B000004330E930B9B1168DD171A462B46C1E90023FFF708BB1193AB46002A40F06486079B43F010030793079A12F0200389D1079911F0100200F0B0820E98BBF1000F82
:404B4000024604688DF86F3002F104024FF00005C0F2478521F08001079154EA05010E9284D01F4689E71193AB46002A40F03886079B43F010030793079A12F020037FF403
:404B800039AF079911F0100200F08A810E98BBF1000F024604688DF86F3002F104024FF00005C0F2218521F08001079154EA05010E921F467FF4FAAE31E700BF9481000017
:404BC0001193AB46002A40F01786079BC0489C0640F1DC800E9C073424F0070303F108020E92D3E90045079A12F0010700F0398154EA05033FF489AC9DF8442000278DF806
:404C00007120079A3023BB458DF870308DF86F7042F00203C0F2058522F0800343F002030793FFF74BBB0E9911930A68002301201F468DF86F309B4613930B1D09908DF839
:404C400098200E930D9026AEFFF755BB1193AB46002A40F0CD85079B0E9C1D0704F1070440F1148324F0070303F108020E921A685B6814921593159B149D23F00044284676
:404C800021464FF0FF32934B02F034FF002840F07582284621464FF0FF328E4BFEF7A0F8002840F06B821498159900220023FEF78DF8002840F0AF849DF86F700799864E4F
:404CC00021F08001854B0791119903224FF0000B09924729D8BF1E460D92CDF84CB0FFF706BB079B43F00803079398F80030FFF74DBA98F8003001222B21FFF747BA079B85
:404D000043F02003079398F80030FFF73FBA0E9AAB461668002511938DF86F50141D002E00F05084BBF1000FC0F28D835A4629463046FEF757FD002800F09484AB46831B83
:404D40000D9323EAE3730E940993CDF84CB09DF86F70FFF7CCBA98F8003000297FF416AA01222021FFF712BA079B43F00103079398F80030FFF70ABA1193AB46002A40F023
:404D80004685079B56489C063FF524AF079BD90640F1B5810E9A00251346043314680E9321E7013B013501361C44072DCAF8006024952594CAF8043000F345810AF1080A48
:404DC000199A013514441FAB072D25942495CAF80420CAF800307FF74CAB23AA08990A9802F0ACFC00287FF4B5AB0DF1C00A259CFFF741BB5F464FF0000BCDF834B030AE27
:404E0000FFF76EBA23AA08990A9802F097FC00287FF4A0AB259CFFF768BB1193002A40F0FA84119A002A3FF48EAB002301211F4609918DF898208DF86F309B4613930D9178
:404E400026AEFFF758BA26480791119354EA05030E924FF000077FF431AA00240025FFF72DBABBF1000F8DF86F70C0F2348222F08003079354EA05037FF420AABBF1000F18
:404E80007FF451ABB6E7079BDE0640F15C810E9A13461C680433E5170E9322462B4673E5079911F0400740F06C820E9ABBF1000F134614688DF86F7003F104034FF00005E7
:404EC00080F250810E9354EA05037FF46FADABE560810000FFFFEF7F54810000508100007481000023AA08990A9802F027FC00287FF430AB259C0DF1C00A139A1D9B324482
:404F00001746129A934249DB079AD20746D412990E44F51BCB1A9D42A8BF1D46002D2E460DDD249A2C440132072A2594CAF80070CAF80450249200F330830AF1080A002E8B
:404F4000B4BF1D469D1B002D7FF795AA8A4A102D249B0F927FF763AC10260A9FDDF820B005E00AF1080A103D102D7FF758AC01331034072B25942493CAF80090CAF80460BF
:404F8000EFDD23AA5946384602F0D8FB00287FF4E1AA0DF1C00A259C249BE4E7249A1698013217990444072A2594CAF80010CAF80400249200F387820AF1080AA7E7079B35
:404FC000DF073FF59FAB0123072D2594CAF800602495CAF804307FF7F1AE23AA08990A9802F0ACFB00287FF4B5AA0DF1C00A259C249DE5E623AA08990A9802F09FFB0028DA
:405000007FF4A8AA0DF1C00A259C249DFFF786BB23AA08990A9802F091FB00287FF49AAA0DF1C00A259C249DFFF787BB4646DDF8348001350F9B3444072D259424958AE8B6
:4050400048007FF7BBAE23AA08990A9802F076FB00287FF47FAA259C249D0DF1C00AAFE623AA08990A9802F069FB00287FF472AA0DF1C00A259CFFF7B2B964424FF02D07D3
:4050800065EB4505BBF1000F8DF86F70FFF68EAC079B23F08003079388E4079911F0400716D00E98BBF1000F034604888DF86F2003F104034FF00005C0F2A58121F0800109
:4050C000079154EA05010E933FF4D0AC1746D4E40E9ABBF1000F134614688DF86F7003F104034FF00005C0F28E81079A0E9322F08002079254EA05027FF4BFACB6E40E9AFF
:40510000079B002513F0400F134603F104030CBF146814880E9366E5079BDE060BD4079B5D0608D50E9A136804320E92BDF82C201A80FEF7F8BF0E9A136804320E920B9A0E
:405140001A60FEF7F0BF079B0E9A13F0400F13463FF49FAEB2F900400433E5170E9322462B4611E4079A0E9322F08002079254EA05027FF41BAC52E494810000149C2246BE
:405180002046159C2346214602F0B4FC002840F0BE82119BBBF1FF3F23F020030D9300F04382472B00F03281079B43F480731093159B1F1E149B0993B7BF3B46002303F1E3
:4051C00000472D230F93119B662B00F01082462B00F0FC800D9B21A8452B18BF5D461EA908BF0BF10105049003911DA802213B460290099A019500910A9800F0ADFC119B1B
:405200000646672B40F04982079BDA0740F1718274190998394600220023FDF7CDFD002840F04F81219B9C4206D930215A1C21921970219B9C42F9D89B1B12930D9B472BBA
:4052400000F02B81119B652B40F33682119B662B1D9B139300F0F881139A12998A42C0F2E681079BDB0700F13B8222EAE2730D92672211920F9A002A40F005810993109BFC
:40528000934607939DF86F70FFF731B824F00704236814936368159304F108030E93EAE4144601330F9A2C44072B259424938AE824003FF717AE0AF1080A1EE623AA08999C
:4052C0000A9802F03BFA00287FF444A90DF1C00A259CFFF76AB90E9AB8E5249BB649013301340122072B259424938AE8060060DC0AF1080A2DB9129B1BB9079BD9077FF56C
:40530000BAA8249B16990133179A0C44072B2594CAF80020CAF80410249300F3D3810AF1080A6D42002D40F3A080A44A102D0F9240F3D78022461027DDF828B0089C05E060
:405340000AF1080A103D102D40F3CA8001331032072B25922493CAF80090CAF80470EFDD23AA2146584602F0E9F900287FF4F2A80DF1C00A259A249BE4E74FF0FF30FFF75F
:40538000EFB80E98BBF1000F034604888DF86F2003F104034FF00005C0F2AD8121F08001079154EA05010E9317467FF4FFAAFFF736BB23AA08990A9802F0C0F900287FF418
:4053C000C9A80DF1C00A1D9D259C93E721A81EA9049003911DA803210290099A3B46CDF804B000910A9800F0B7FB5D460646119B7419462B7FF40DAF3378302B00F0A581F6
:405400001D9D2C4405E70E93FFF736BBBBF1000F08BF4FF0010BC7E6079B08F1010843F02003079398F80030FEF7B0BE23AA08990A9802F083F900287FF48CA80DF1C00A88
:40544000259CFFF7CAB83046FEF7FEFDAB46034676E423AA08990A9802F070F900287FF479A8259C249B0DF1C00A129901330C44072B25942493CAF80060CAF804107EF74C
:40548000F8AFFFF7D6B90993109B2D2707938DF86F704FF0000BFEF72BBF1D9BD81C2CDB9B452ADB1393D7E623AA08990A9802F045F900287FF44EA80DF1C00A259CFFF7B3
:4054C000E7B92346B8E623AA08990A9802F036F900287FF43FA80DF1C00A1D9B259C16E5144601330F9A2C44072B259424938AE82400AEDC0AF1080AB7E7119A023A119278
:40550000013B9DF84420002B1D93B8BF5B428DF87C20B4BF2D222B22092B8DF87D2040F3EE800DF18B000446254A82FB0321DA17C2EBA10101EB8102A3EB42023032092928
:405540000B4604F8012DEFDC21463033DAB201F8012D884240F258810DF17E01234601E013F8012B984201F8012BF9D1431C1B1B0DF17E0213441FAA9B1A129A1993012A61
:4055800013440D9340F3EF800D9B169A134400220D93139223EAE3736CE623AA08990A9802F0CCF800287EF4D5AF1D9B129A259CD31A0DF1C00AC2E49081000094810000FD
:4055C000676666665B46062B28BF06230D9323EAE373B346374613960E940993904EFEF786BE0E92FFF748BA0E921F466BE421A81EA9049003911DA803210290099A3B4676
:40560000CDF804B000910A9800F0A6FA5D46064600EB0B04F0E62D231F468DF86F30FFF74DBB0793FEF74ABE4FF0060BBCE5169A129B1344139A0D93002A40F39E8067220B
:4056400023EAE373119215E6002B40F3AC80BBF1000F71D1079AD1076ED41A4623EAE3730D9207E62BEAEB73CDF834B0099383460E9413909DF86F70FEF739BE079B5F462B
:40568000DB0705D540AE302306F8413DFEF725BECDF834B030AEFEF723BE119B472B7FF4B7AD079BDC073FF5A2AE219B9B1B12930D9B472B3FF4F1AE1D9B21E7A046002570
:4056C000FEF766BD23AA08990A9802F037F800287EF440AF0DF1C00A1D9D259C249B20E6169A139B134467220D93119223EAE373C0E5219BA0E50E931746FFF7E4BB303310
:4057000030228DF87F308DF87E2020AB33E70799444E21F08001444B0791119903224FF0000B09924729D8BF1E460D92CDF84CB09DF86F70FEF7DBBD139B169A9D1805EB6D
:405740000B030D9323EAE37394E50998394600220023FDF731FB00287FF452AEC5F101051D952C4455E5079B13F001037FF40CAF13930D9B23EAE3737CE5139B0D9AC3F175
:4057800001031A4413460D9259E70E9898F8013005680430002D0E90A046BEF6F7AC4FF0FF35FEF7F3BCBBF1000F02D1079BDA0707D5169B5D1C05EB0B030D9323EAE37310
:4057C00058E501230D9355E58DF86F10FFF736B98DF86F10FFF709B98DF86F10FFF7C1B88DF86F10FFF7C4B98DF86F10FFF798B98DF86F10FFF72FBA8DF86F10FFF7E5B919
:405800008DF86F10FFF776B90DF17E03B3E68DF86F10FFF7B6BA8DF86F10FFF702BB00BF888100005C81000058810000F0B50C468989ADF26C4D656E21F00201666AADF8CB
:405840000C10E169E789199500250791099606951AAE4FF4806569460096049602950595ADF80E700646FEF71DFC051E07DB3046694601F03BF9002818BF4FF0FF35BDF8BA
:405880000C305B0603D5A38943F04003A38128460DF26C4DF0BD00BFF8B50E461446074610B1836B002B4AD0B4F90C20A36991B20807A36038D52369002B35D08904F5B248
:4058C00015D522686169D31A8B421CDA0133A168501C0139A1602060167062699A421AD0A389DB0701D50A2D15D02846F8BD616E42F4005221F40051A28122686166616921
:40590000D31A8B42E2DB2146384601F0EFF840B922680123DBE72146384601F0E7F80028E3D04FF0FF30F8BD2146384600F00AF80028F6D1B4F90C20236991B2BEE701F013
:4059400069F9B1E738B5304B054618680C4610B1836B002B38D0B4F90C2093B218070CD52069A8B113F001021ED0636900225B42A361A260F0B1002038BDD9063BD558073D
:4059800025D4206942F00803A3819BB20028E9D103F42072B2F5007FE4D02846214601F0F3FAA3892069DDE7990758BF6269A2600028E0D1B4F90C301A06DDD543F04003B8
:4059C000A3814FF0FF3038BD01F024F9C3E7216B51B104F14003994204D0284601F086F9B4F90C20002323632069002322F0240284E80900C6E742F0400209232B604FF023
:405A0000FF30A28138BD00BF2085FF1F024B13B1024800F005B8704700000000296C0000002301461A46184601F0A8BE2DE9F04F03690F6983B09F4200F38980013F01F14F
:405A4000140600F1140A56F827305AF827200133B2FBF3F8BB00009306EB030953440193B8F1000F3BD000231C46B446D6465CF804BBDEF800501FFA8BF208FB02324FEAE0
:405A80001B4B130C08FB0B3392B2A41A1FFA83FBAAB22244CBEB154404EB224492B242EA0442E1454EF8042B4FEA24444FEA1343DDD2009B5AF803308BB9019C231F9A450F
:405AC0000CD254F8043C4BB9A4F1080302E01A68043B1AB99A4507F1FF37F8D30761044601F0A4FC00282EDB00235546194608F1010856F8042B2B6890B2081A120C99B2DA
:405B0000C2EB1343421803EB224392B242EA0342B14545F8042B4FEA2341EAD25AF827200AEB87037AB91A1F92450BD253F8042C42B9083B02E01A68043B1AB99A4507F107
:405B4000FF37F8D32761404603B0BDE8F08F002003B0BDE8F08F00BF2DE9F04F016C99B0814692469B46259C49B1426C012393408B604A6001F074FA0023C9F84030BBF1AA
:405B8000000FD84633DB00232360A34B1A4608EA0303934214D00022002350465946FDF70BF9054648B3249A01231360269B002B00F0C58099481860013819B0BDE8F08F58
:405BC00042F20F73249A1360BAF1000F00F0A2809348269B002BF0D0C378002B00F0B18000F10803269A136019B0BDE8F08F01232BF000482360C346C7E716AA17AB0192F2
:405C0000009352465B46484601F0C4FC5FEA1854099040F08880169D179C2C4404F23243202B40F38A82C3F1400304F2124008FA03F82AFA00F040EA0800FCF7DFFD012393
:405C4000013CA1F1F8710F930022764BFCF798FC6BA3D3E90023FCF747FE6BA3D3E90023FCF790FC064620460F46FCF7D7FD68A3D3E90023FCF738FE02460B4630463946E0
:405C8000FCF780FC06460F4601F04AFF00220390002330463946FDF799F8002840F02982039E162E00F222825F49524601EBC6015B46D1E90001FDF7A7F8002800F042820C
:405CC000731E039300230D932C1B631E049300F12B8200230693039B002BC0F21C82049A0C9311461944002304910B93229B092B29D8052B40F35286043B22930025229B9E
:405D0000023B032B00F22F86DFE813F02703200232035304424B454AC8F31300002814BF1846104655E7CBF3130343F07F510F955046A4F2FF3441F44011169D84E73C48D8
:405D40003BE7C31C4EE70021C9F844104846229101F05EF94FF0FF33229A07930E93012308902392C9F840000A93179B002BC0F2CA80039A0E2A00F3C6802B4B03EBC203A7
:405D800018CBCDE90434239B002BC0F2FC8256465F46DDE904AB304652465B463946FCF7CDFE01F0BDFE0446FCF738FD52465B46FCF79AFD02460B4630463946FCF7E0FB1A
:405DC000079E089F04F13005012E3D7002460B4607F101055ED00022164BFCF785FD0022002306460F46FCF7E7FF002878D1CDF81890DDF81CA0DDF820B0DDE9048928E066
:405E000061436F63A787D23FB3C8608B288AC63FFB799F501344D33F0000F07F91810000B08100000000F83FC0810000A481000090810000000024400022C34BFCF754FD8C
:405E40000022002306460F46FCF7B6FF002840F0B38342464B4630463946FCF76FFE01F05FFE0446FCF7DAFC42464B46FCF73CFD02460B4630463946FCF782FB04F13006C9
:405E800005F8016BCBEB0506564502460B46D3D1DDF8189010461946FCF774FB06460F4602460B46DDE90401FCF790FF40B9DDE9040132463B46FCF77FFF88B1E3070FD590
:405EC00015F8014C6B1E089A04E09A4200F02C8413F8014D392C03F10105F6D001341C700999484601F0BCF80022039B2A70249A01331360269B002B00F0A88308981D60C6
:405F000019B0BDE8F08F0A9A002A00F01281229A012A40F35A82079B0B9A5F1EBA42C0F29883D71B079B002BC0F28C84069D079B069A01211A440692049A48461A44049202
:405F400001F026F9064665B1049900290B4608DDA942A8BF2B46069AED1AD21ACB1A069204930B9B002B40F3FD820A9A002A00F00382002F00F0008231463A46484601F06C
:405F8000AFF9DDF82480014642460646484601F009F941460446484601F062F80B9BDB1B0B9340F0E8810121484601F0F1F80C9B8046002B00F01B8201461A46484601F0D2
:405FC0008FF9229B8046012B40F3F9820027D8F8103008EB8303186901F08CF8C0F12000049A104410F01F0000F0F881C0F12003042B40F3CB84069BC0F11C0003440693F8
:406000001346034405440493069B002B05DD21461A46484601F0B4F90446049B002B05DD41461A46484601F0ABF980460D9B002B40F07D82079B002B40F396820A9B002B8F
:4060400040F0F681DDF820A0079F554604E02146484601F00FF8044641462046FFF7E6FC303005F8010BCAEB0503BB424FF00A024FF00003EBDB089B079A8246012AACBFAB
:406080009B1801331D464FF0000B21460122484601F076F94146099001F0C8F9002840F30E8315F8012C6B1E089904E08B4200F0798213F8012D392A03F10105F6D0013287
:4060C0001A704146484600F0CBFF002E3FF408AFBBF1000F05D0B34503D05946484600F0BFFF3146484600F0BBFFF9E601230D93EAE5DDF80C804046FCF790FB02460B46DA
:4061000030463946FCF758FE00287FF4C9AD08F1FF330393C4E5069A039BD21A5B420B93002306920C93E1E55B42069300230493D1E50B9F069D0A9E05E7C3F120080AFABA
:4061400008F07AE50D90BFE50000244000230A93039B239A13440E930133002B079340F38582079C26460021172EC9F844100BD9012204235B0003F11400B042114602F186
:406180000102F7D9C9F84410484600F041FF0E2C0890C9F840003FF6E8AD002D3FF4E5AD5746D8460399CDE91078002940F39382924B01F00F020E1103EBC203F006D3E941
:4061C000004540F14E828E4B5046D3E908235946FCF7B4FC82468B4606F00F064FF0030886B1874FF10709D5D7E9002320462946FCF77AFB04460D4608F10108761007F1B3
:406200000807EFD122462B4650465946FCF796FC06460F460D9B43B100227A4B30463946FCF7D4FD002840F023834046FCF7F6FA32463B46FCF758FB734B0022FCF7A2F90B
:40624000079B0446A1F15075002B00F0E181039B1393079B12930A9B002B00F09882129A664B002003EBC20353E902236749FCF765FC22462B46FCF783F982468B4630460D
:40628000394601F04DFC0446FCF7C8FA02460B4630463946FCF774F93034089DE4B206460F462C7002460B46504659460135FCF7ABFD00284ED132463B4600205149FCF7D0
:4062C0005FF902460B4650465946FCF79DFD002840F00E83129A012A40F3B481129B089A134498460FE032463B4600204549FCF747F952465B46FCF769FD002840F0F88212
:40630000454500F09F81504659460022404BFCF7EBFA00223E4B82468B4630463946FCF7E3FA0F46064601F0FBFB0446FCF776FA02460B4630463946FCF722F93034E4B235
:4063400005F8014B52465B4606460F46FCF73EFD0028C8D0139B0393C2E500230A93239B002B40F388811E461C460E930793FAE601230A93F3E709940B9A0999484600F05E
:40638000AFFF04460FE6079B002B3FF700AD40F0D982DDE9040100221E4BFCF7A5FA52465B46FCF727FDDDF81C804646002800F0F180239B089DDB4303934146484600F0DB
:4063C0004FFE002E3FF48CAD8BE60F9A002A00F0418203F233430B9F069DA9E51C20069B054403440693049B034404930CE6229B012B40F381820C9F0120F1E5C081000002
:40640000888200000000F03F00001C400000E03F0000244000001440314600230A22484600F028FE0E9B0646002B40F397820793002D05DD31462A46484600F0A1FF064620
:40644000002F40F07B810696079B089A013BD318099317460AF00103C246DDF818B00A9351462046FFF7E2FA31460546204600F0DDFF5A4604905146484600F0F7FFC26855
:40648000804605F13003002A49D101462046079300F0CCFF41460690484600F0E1FD069A079B2AB9229919B90A99002900F0368204990029C0F2E48005D1229919B90A9926
:4064C000002900F0DD80002A00F34C81099A07F1010897423B70454600F05381214600230A22484600F0C6FD5E45044631464FF000034FF00A0248460BD000F0BBFD59462D
:40650000064600230A22484600F0B4FD47468346A6E700F0AFFD474606468346A0E701464846069300F09CFD0122069BC0E74146204600F07BFF0028BFF67CAD2146039C24
:406540000023013C0A224846039400F093FD0A9B0446002B7FF460AF0E9B002B40F3F68107936FE5099C1EE5229B022B7FF766AD079B002B40F07A8141460522484600F0A3
:4065800079FD01468046204600F050FF002809947FF70FAF039A08993123013203920B704D1C0AE7039A312301320392089A137087E501230A93CBE5DDF8189090E4BAF134
:4065C000000F7FF403ADCBF31303002B40F040812BF000473F0D3F0537B1069B012701330693049B013304930C9B0120002B3FF4F7ACECE44046FCF711F932463B46FCF797
:4066000073F90022BF4BFBF7BDFF0446A1F15075304639460022BC4BFBF7B2FF22462B4606460F46FCF7F0FB8046002840F00681224605F1004330463946FCF7C7FB08B1B1
:406640004646B6E6DDE910ABFFF78FBB0898FFF7B4BA0B9B0C9AFB1A1A440B970C92002760E4DDE910AB4FF00208B9E51C460021C9F8441088E5012423940E940794F6E760
:40668000002AD046CDF818B09A4611DD21460122484600F075FE4146044600F0C7FE002840F34981BAF1390F00F0078105F1310AB34687F800A07D1C069E099401E504D1D0
:4066C0001AF0010F01D0ECE4154615F8013C6A1E302BF9D0F5E4039B5C42002C00F0C180DDE91001894B04F00F0203EBC203D3E90023FCF7F9F8241106460F4600F02B8184
:40670000834D4FF00208E20709D5D5E9002330463946FCF7E9F806460F4608F10108641005F10805EFD175E5089930220A70039A15F8014C01320392FFF7D0BB7168484687
:4067400000F066FC0546336906F10C019A1C92000C30FDF78DF829460122484600F010FE069071E6392BCDF818B0D04600F0A58003F1010AB34687F800A07D1C069E0994C7
:406780009FE45A46D046B3469A4616467DE4129B5E4903F1FF3A01EBCA012246D1E900012B46FCF7A1F8CDE914013946304601F0B7F90446FCF732F80B460246394630465C
:4067C000FBF7DEFE129B0F4608993034012B06460C7001F101051FD0129B089AA84613449B4600224B4B30463946FCF77DF80F46064601F095F90446FCF710F802460B4661
:4068000030463946FBF7BCFE303408F8014BC34506460F46E5D1554400223F4BDDE91401FBF7B0FE32463B46FCF7D0FA00284CD0139B039315F8014CFFF744BB4FF0000814
:406840004646A7E6069B079A9D1A0023FFF770BB0027C9E6169B0B9FC3F13603069DFFF767BBDDE910674FF00208D3E40994A0E5079B002B3FF4BEAE0E9B002B7FF7E2AE44
:406880000022244B30463946FCF72EF806460F4608F10100FBF7C2FF32463B46FCF724F80022184BFBF76EFE039A0E9B013A04461392A1F150751293CDE43922B3460994F2
:4068C000069E3A707D1CFFF7EEBBDDE9142300201149FBF755FE32463B46FCF795FA08B9B0E6154615F8013C6A1E302BF9D031E5139B0393FFF7E6BABAF1000F7FF47BADEE
:4069000061E600BF00001C4000001440C081000088820000000024400000E03F392BCDF818B0D046DDF810B09A46C6D0BBF1000F3FF7BCAEBCE67FF4BBAE1AF0010F3FF49B
:40694000B7AEAFE64FF00008464632E5229B022B21DC0E9B04E64FF002085BE4229B022B19DC0E9B63E50024C9F844402146484600F04EFB4FF0FF3307930E930123089062
:406980002394C9F840000A93FFF7EFB93FF43CABC0F13C0023E50E9B0793E9E50125FFF7AEB900BFB1F90C302DE9F0419AB20D46110780463CD46A6843F40063002AAB8106
:4069C00073DDAC6A002C4BD09BB203F48052002192B2D8F80060C8F80010002A69D02A6D5F0705D569682B6B521A0BB1EB6BD21A0023E9694046A047441C3CD0B5F90C302C
:406A0000296923F400630022AB81DB0485E8060049D4296BC8F8006011B305F14003994202D0404600F062F900202863BDE8F0812E69AEB190072C680CBF6B6900232E602C
:406A4000A41BAB600AE0234632466F6AE9694046B8470028A4EB0004064404DD002CF2DC0020BDE8F081AB894FF0FF3043F04003AB81BDE8F081D8F800201D2AF3D81A4BFA
:406A8000D34003F0010383F00104002BEBD0B5F90C30296923F400632960D9046C60AB81B7D5002AB5D12865B3E7EA6B002A88DCD6E70123E9694046A047431C024602D0BB
:406AC000AB89AC6A8CE7D8F80030002BF8D01D2B01D0162B02D1C8F80060C1E7AB8943F04003AB81BDE8F0810100402010B5044682B008B1836B53B1B1F90C0008B902B08F
:406B000010BD204602B0BDE81040FFF74BBF019100F080F80199EFE7014900F0CFB900BFA57800002DE9F04F074635487D68002407F53B7204230321F863C7F8E412C7F888
:406B4000E822C7F8E04283B02C606C60AC606C66EC812C616C61AC61AB81214605F15C000822FCF75FFFDFF89CB0BE68DFF898A0DFF89890DFF8988001230922C5F820B06B
:406B8000C5F824A0C5F82890C5F82C80ED612146F381B28106F15C0034607460B460746634617461B46108220193FCF73BFFFD6812200222F661C6F820B0C6F824A0C6F827
:406BC0002890C6F82C802146A881EA812C606C60AC606C662C616C61AC6105F15C000822FCF720FF019BED61C5F820B0C5F824A0C5F82890C5F82C80BB6303B0BDE8F08F82
:406C0000196B00003D760000617600009D760000BD760000836B03B17047FFF783BF00BF704700BF704700BF38B5074D074C2C1BA41005D0013C55F8043D9847002CF9D1C0
:406C4000BDE8384001F046BBE4820000E0820000F8B50C46224F0646FCF732FFBB685D6825F00305291B01F6EF7121F47F6121F00F01A1F58054B4F5805F07DB002130463C
:406C8000FDF7D0F9BB682B44984204D03046FCF719FF0020F8BD61423046FDF7C3F901300DD0104BBA6819682D1B45F001053046091B55601960FCF705FF0120F8BD002173
:406CC0003046FDF7AFF9BA68831A0F2BDEDD064C0449246843F00103001B53600860D5E72485FF1F202500203089FF1F002945D02DE9F0410D468046FCF7E2FE55F8047C39
:406D00006A49A5F1080427F00103E2188E685068B24220F0030062D0FE0750600BD455F8087C01F1080EE41BA5683B4475456FD0E768EF60BD6015186D68ED0742D543F016
:406D400001026260E350B3F5007F18D2DB0848689D100122013351F8337002FA05F501EBC3022843083AE260A760486041F83340FC604046BDE8F041FCF7A4BE70475A0A6E
:406D8000042A53D89A0902F139077F0002F1380501EB870051F827200838904243494DD0516821F003018B4202D292689042F7D1D068E060A2608460D4604046BDE8F04146
:406DC000FCF780BE95683A4F0344BD423FD0D06843F00102E86085606260E350B3E7FF07034407D455F8085C641BE268A0682B44C26090602F4A43F0010012686060934276
:406E00008C60B6D32C4B40461968FFF721FFB0E711184968C90744D491680344D26843F00100CA6091606060E350A2E7142A17D802F15C077F0002F15B05A9E7AA104B6859
:406E4000012505FA02F213434B600246B1E743F001024C610C61E560A5606260E35088E7542A06D81A0B02F16F077F0002F16E058EE7B2F5AA7F06D8DA0B02F178077F0052
:406E800002F1770584E740F25450824206D89A0C02F17D077F0002F17C0579E7FE277E2576E743F001026260E35062E72485FF1F2C85FF1F2C89FF1F1C2500202DE9F8435C
:406EC00010F538761ED0884607464FF000097568B468013D10D4A389013D012B08D9B4F90E30013304D021463846C04749EA00096B1C04F16804EED13668002EE7D1484628
:406F0000BDE8F883B1464846BDE8F883004870476C89FF1F014B1868704700BF8C89FF1F004870473489FF1F70B50E46B1F90E1090B0002914461D4614DB01AA00F050FDED
:406F400000280FDB029A4FF4806302F47042A2F50052B2FA82F24FF4006052092A60236010B070BDB289002002F0800292B228601AB14023236010B070BD10464FF48063DF
:406F8000236010B070BD00BF8A890B46920706D501F1430201211A601A6159617047F0B583B001AB6A460C460546FFF7BDFF009906462846FCF76AF9B4F90C30D0B19DE8F0
:406FC0000600124F43F08003EF63A3812060206161611AB93343A38103B0F0BD2846B4F90E1000F011FDB4F90C300028F2D043F00103EFE79A05EFD404F1430243F0020383
:407000000121A381226022616161E5E7196B0000C26C70B505460C4652B152F824308BB1196842F82410002218461A61DA6070BD2122042100F0F4FBE86402460028ECD115
:40704000002070BD012101FA04F6721D2846920000F0E6FB03460028F2D044608660E2E731B1C36C4A6853F82200086043F82210704700BFF0B50C4605460E6983B001F16D
:40708000140E0027DEF80000013781B202FB0131000C0B0C02FB003389B201EB0341BE424EF8041B4FEA1343ECDC3BB1A268964207DA04EB8602013653612661204603B0EC
:4070C000F0BD6168284601310193FFF7A1FF0746226904F10C01023292000C30FCF7C8FBEA6C6168019B52F82100206042F821403C46DEE7030C1B04B3B90004102310F065
:407100007F4F04BF0002083310F0704F04BF0001043310F0404F04BF80000233002807DB420003D4202070470023E8E7581C704718467047036813F0070207D0D90720D452
:407140009A0720D49B0803600220704799B209B91B0C102213F0FF0F04BF1B0A0832190704BF1B090432990704BF9B080232D90704D45B0801D120207047013203601046BB
:407180007047002070475B0803600120704700BF10B50C460121FFF73BFF01224461026110BD00BF2DE9F04F0D69166985B0B5420C46914604DA2A464C463546894616469F
:4071C000A36805EB060861689845C8BF0131FFF71FFF00F1140A0AEB880BDA45019005D25346002143F8041B9B45FBD809F1140909EB860304F11402994502EB850C59D208
:40720000CDF808B0CDF80C809B46904659F8047B1FFA87FEBEF1000F1FD047465646002100E00646304657F8045B3468ABB2A2B20EFB03222D0C240C0EFB0544531804EB84
